:020000040800F2
:1000000000000520815D0008C5110008C711000827
:10001000C9110008CB110008CD1100080000000034
:10002000000000000000000000000000CF110008E8
:10003000D111000800000000D3110008D5110008FC
:10004000D15D0008D15D0008D15D0008D15D0008D8
:10005000D15D0008D15D0008D15D0008D15D0008C8
:10006000D15D0008D15D0008D15D0008D15D0008B8
:10007000D15D0008D15D0008D15D0008D15D0008A8
:10008000D15D0008D15D0008D15D0008D15D000898
:10009000D15D0008D15D0008D15D0008D15D000888
:1000A000D15D0008D15D0008D15D0008D15D000878
:1000B000D15D0008D15D0008D15D0008D15D000868
:1000C000D15D0008D15D0008D15D0008D15D000858
:1000D000D15D0008D15D0008D15D0008D15D000848
:1000E000D15D0008D15D0008D15D0008D15D000838
:1000F000D15D0008D15D0008D15D0008D15D000828
:10010000D15D0008D15D0008D15D0008D15D000817
:10011000D15D0008D15D0008D15D0008D15D000807
:10012000D15D0008D15D0008D15D0008D15D0008F7
:10013000DD110008D15D0008D15D0008D15D000827
:10014000D15D0008D15D0008D15D0008D15D0008D7
:10015000D15D0008ED110008D15D0008D15D0008F7
:10016000D15D0008D15D0008D15D0008D15D0008B7
:10017000D15D0008D15D0008D15D0008D15D0008A7
:10018000D15D0008D15D0008D15D0008D15D000897
:10019000D15D0008D15D0008D15D0008D15D000887
:1001A000D15D0008D15D0008FD110008D15D000897
:1001B000D15D0008D15D0008D15D0008D15D000867
:0801C000D15D0008D15D0008CB
:1001C80010B5054C237833B9044B13B10448AFF389
:1001D80000800123237010BD4400002000000000AF
:1001E800D45D000808B5034B1BB103490348AFF3BE
:1001F800008008BD0000000048000020D45D000811
:1002080053B94AB9002908BF00281CBF4FF0FF3175
:100218004FF0FF3000F06AB9ADF1080C6DE904CE7B
:1002280000F006F8DDF804E0DDE9022304B07047C9
:100238002DE9F047089D0C46002B4ED194468C457D
:100248008646B2FA82F262D94AB1C2F120039140DD
:1002580020FA03F30CFA02FC194300FA02FE4FEAF3
:100268001C471FFA8CF6B1FBF7F44FEA1E4307FB55
:10027800141143EA014304FB06F199420AD91CEB25
:10028800030304F1FF3080F01281994240F20F819C
:10029800023C6344591A1FFA8EF3B1FBF7F007FBCF
:1002A800101143EA014300FB06F69E420AD91CEBF3
:1002B800030300F1FF3180F0FC809E4240F2F98098
:1002C800634402389B1B40EA044000211DB1D3401F
:1002D8000022C5E90032BDE8F0878B4205D90DB18F
:1002E800C5E9000100210846F5E7B3FA83F10029C2
:1002F80046D1A34202D39042C0F0F080861A64EB44
:1003080003030120002DE6D0C5E90063E3E7002AD6
:1003180040F09080A1EB0C044FEA1C481FFA8CF7C0
:100328000121B4FBF8F64FEA1E4308FB164443EAE2
:10033800044307FB06F0984208D91CEB030306F1B7
:10034800FF3402D2984200F2CD8026461C1A1FFACA
:100358008EF3B4FBF8F008FB104443EA044300FBB7
:1003680007F79F4208D91CEB030300F1FF3402D2C0
:100378009F4200F2B0802046DB1B40EA0640A5E71A
:10038800C1F120068B4022FA06F71F4320FA06FC2B
:1003980004FA01F343EA0C03F44000FA01F8380CBC
:1003A8004FEA1349B4FBF0FE1FFA87FC00FB1E441A
:1003B80049EA04440EFB0CF9A14502FA01F20AD9F4
:1003C8003C190EF1FF3A80F08480A14540F281800B
:1003D800AEF1020E3C44A4EB09041FFA83F9B4FB06
:1003E800F0F300FB134449EA044403FB0CFCA44566
:1003F80007D93C1903F1FF3067D2A44565D9023B00
:100408003C4443EA0E40A0FB0293A4EB0C049C423C
:10041800CE469C4651D34ED055B1B8EB0E0364EB93
:100428000C0404FA06F6CB401E43CC40C5E9006430
:10043800002150E7C2F1200320FA03F10CFA02FC74
:1004480024FA03F394400C434FEA1C4800FA02FED6
:100458001FFA8CF7B3FBF8F008FB1031230C43EAC2
:10046800014300FB07F1994208D91CEB030300F193
:10047800FF362CD299422AD9023863445B1AA4B2B7
:10048800B3FBF8F108FB113344EA034401FB07F31B
:10049800A34208D91CEB040401F1FF3613D2A3428E
:1004A80011D902396444E41A41EA004139E70446A3
:1004B800F0E6084606E7C845AED2B9EB020E63EB94
:1004C800070C0138A8E73146EDE7034699E73046BF
:1004D800D4E7D6467FE7634402384DE7064623460D
:1004E80008460FE7023E634430E700BF704700BF8D
:1004F80002440346934200D1704703F8011BF9E711
:1005080070B50D4D0D4C641BA4100026A64209D1F0
:100518000B4D0C4C05F05AFC641BA4100026A64297
:1005280005D170BD55F8043B98470136EEE755F8FC
:10053800043B98470136F2E71C5E00081C5E000881
:100548001C5E0008245E000870477047024B13B118
:10055800024800F005B87047000000007505000863
:10056800002301461A46184600F014B838B5074D5E
:10057800074C641BA4101CB9BDE8384005F02CBC1E
:10058800013C55F824309847F5E700BF245E000881
:10059800285E00082DE9F047DFF874A00646DAF86F
:1005A800000098460F469146FFF7CEFF164B1C6891
:1005B8000CB9164C1C606568DAF800001F2D05DDC3
:1005C800FFF7C3FF4FF0FF30BDE8F0879EB104EBA3
:1005D80085010122C1F88890D4F88831AA401343D4
:1005E800C4F88831022EC1F8088102BFD4F88C31D2
:1005F8001343C4F88C316B1C0235636044F82570D2
:10060800FFF7A3FF0020DFE7640000206800002058
:10061800000000208AB02E4B1A6B42F010021A63B9
:100628001A6B02F010020092009A1A6B42F0020252
:100638001A631A6B02F002020192019A1A6B42F0D5
:1006480001021A631A6B02F001020292029A1A6BF3
:1006580042F040021A631A6B02F040020392039AB6
:100668001A6B42F008021A631A6B02F0080204922D
:10067800049A1A6B42F480721A631A6B02F480723D
:100688000592059A1A6B42F480621A631A6B02F497
:1006980080620692069A1A6B42F020021A631A6B5D
:1006A80002F020020792079A1A6B42F080021A633E
:1006B8001A6B02F080020892089A1A6B42F0040240
:1006C8001A631B6B03F004030993099B0AB0704774
:1006D800003802404FF0000C62450FD910B531F9CF
:1006E8001C30074C84FB034EDB17C3EB6E0320F86A
:1006F8001C300CF1010C6245F1D810BD704700BFE9
:10070800ABAAAA2A00B583B00E4B1A6B42F480023A
:100718001A631B6B03F480030193019B00221146AB
:100728003C2001F0B5FF3C2001F0C2FF0022114639
:10073800452001F0ADFF452001F0BAFF03B05DF898
:1007480004FB00BF0038024010B582B084460C4656
:100758001A4B93E8030002AB03E90300002300E00F
:100768000433A34223D23CF91300BDF90010884298
:1007780001DDADF80000591C3CF91100BDF902106B
:10078800884201DDADF80200981C3CF91000BDF963
:1007980004E0704501DDADF80400D81C3CF91000F8
:1007A800BDF906E07045DBDDADF80600D8E76B461D
:1007B80003CB1060516002B010BD00BFEC5D0008B3
:1007C800014B01221A707047F8010020014B0222E8
:1007D8001A707047F9010020014B01221A70704706
:1007E800F901002072B6FEE708B50C480C4B03600F
:1007F800002343608360C3608362C362036343630F
:1008080002F0A2F928B90121044802F06BFA10B9E4
:1008180008BDFFF7E7FFFFF7E5FF00BF541600200C
:1008280000B0024000B589B00023019302930393FE
:1008380004930593069307931048114A0260436096
:1008480083600422C260102202614021416180213C
:100858008161C361036243628362019202920392DF
:10086800049205920692079201A904F069FD10B955
:1008780009B05DF804FBFFF7B5FF00BFDC120020EC
:10088800400100A010B59AB03424224600210DEB97
:100898000400FFF72DFE224600216846FFF728FED8
:1008A8003248334B0360002343608360C3600361B5
:1008B80007224261032282610E22C261052202627E
:1008C80040F28E22426240F2E51282624FF42572B3
:1008D800C26240F2E712026380F8343080F83530A3
:1008E80080F8363003F0E4F8002838D100220D9261
:1008F8000E920F9210921192129213924FF48063FB
:100908001493052315931692179218928DF8642064
:100918008DF865208DF866200DA9144803F042F97A
:10092800F8B900230093019302930393049305936A
:1009380006934FF4806207920522089209930A935E
:100948000B938DF830308DF831308DF8323001222C
:100958006946064803F026F928B91AB010BDFFF712
:1009680041FFFFF73FFFFFF73DFF00BFAC15002039
:100978000068014008B52348234B03600023036344
:100988004360402242638363C363836003614361BE
:1009980083611E4AC261C36043628362C3620822E4
:1009A8000264012242648364C3640365436583650A
:1009B800C265036603F0D6FC00BB1548154B0360FF
:1009C8000023036303224260402242638363C363BC
:1009D8000122826003618361C36043628362C362F0
:1009E8000821016442648364C364036543658365C5
:1009F800C265036603F0B6FC10B908BDFFF7F2FE46
:100A0800FFF7F0FE28150020045C014000EE02000C
:100A1800A4140020245C014000B589B0002304938D
:100A28000593069307930193029303931348144A7B
:100A38000260436083604FF6FF72C26003614361E6
:100A4800836104F009F898B94FF48053049304A91A
:100A58000A4804F03FF868B900230193029303930E
:100A680001A9064804F08CFC30B909B05DF804FB14
:100A7800FFF7B8FEFFF7B6FEFFF7B4FE98130020A5
:100A88000000014008B50B480B4B03604FF4E133FD
:100A9800436000238360C36003610C224261836169
:100AA800C3610362436204F043FB00B908BDFFF76A
:100AB80099FE00BF101300200010014010B594B03B
:100AC8003022002108A8FFF713FD002403940494A2
:100AD80005940694079403F099F8214B1A6C42F098
:100AE80080521A641B6C03F080530193019B1D4BC9
:100AF8001A6842F440421A601B6803F440430293A8
:100B0800029B0223089301220B9210220C920E934F
:100B18000F9408221092D22211921293139308A8CC
:100B280003F07CF8A8B904F0CDFBA0B90F23039318
:100B380002230493002305934FF4A05306934FF424
:100B480080530793062103A803F0D6FA28B914B0F6
:100B580010BDFFF747FEFFF745FEFFF743FE00BF56
:100B6800003802400070004000B5A3B08422002184
:100B780001A8FFF7BDFC094B01933223069302231A
:100B88000893079301230B9301A804F049FC10B9BB
:100B980023B05DF804FBFFF725FE00BF0800100036
:100BA80000B585B001F0FFFCFFF788FFFFF7DCFF19
:100BB800FFF730FDFFF7A6FDFFF716FEFFF732FE41
:100BC800FFF760FEFFF7D6FEFFF726FFFFF75AFF95
:100BD8000221009110234BF680324FF4407000F050
:100BE80047FD4FF470721A491A4803F063FD4FF439
:100BF80070721949194803F0E1FC194B00221A7068
:100C080015E0134C02AA4FF407712046FFF79CFD2C
:100C18004FF4077221461048FFF75CFD104B002285
:100C28001A70104B1B7813B10E4B00221A700C4B24
:100C38001B78002BF5D00A4B1B78DBB2012BE0D0D8
:100C48004FF4077208490948FFF744FDE6E700BF7B
:100C58006C0A00205C170020FC010020E01700202F
:100C6800F9010020F8010020A40E0020340600201D
:100C7800F0B587B00023019302930393049305937F
:100C8800254B1B680BB107B0F0BD234B01221A603E
:100C9800224B9A6B42F001029A639B6B03F00103AB
:100CA8000093009B4FF68373019302260296032557
:100CB80004950C24059401A9194802F075F848F226
:100CC800331301930296002703970495059401A90D
:100CD800144802F069F84CF20373019302960397E3
:100CE8000495059401A9104802F05EF84FF63F03F9
:100CF8000193029603970495059401A90B4802F005
:100D080053F82C230193029603970495059401A99F
:100D1800074802F049F8B6E7981600200038024064
:100D28000010024000180240000C0240001402406B
:100D3800001C024082B00A4B1A6C42F080521A64BE
:100D48001A6C02F080520092009A5A6C42F4804267
:100D58005A645B6C03F480430193019B02B07047B3
:100D68000038024002680E4B9A4200D0704700B526
:100D780083B0A3F5F0431A6B42F400021A631B6BAD
:100D880003F400030193019B002211465A2001F04D
:100D98007FFC5A2001F08CFC03B05DF804FB00BF17
:100DA80000B00240F0B58FB0002309930A930B936B
:100DB8000C930D930268584B9A4201D00FB0F0BDC6
:100DC80003F550435A6C42F080625A645A6C02F040
:100DD80080620192019A1A6B42F002021A631A6B3E
:100DE80002F002020292029A1A6B42F040021A635F
:100DF8001A6B02F040020392039A1A6B42F0010246
:100E08001A631A6B02F001020492049A1A6B42F4F4
:100E180080621A631A6B02F480620592059A1A6B53
:100E280042F008021A631A6B02F008020692069A48
:100E38001A6B42F480721A631A6B02F4807207927A
:100E4800079A1A6B42F080021A631B6B03F0800347
:100E58000893089B4FF44073099302250A950E26C0
:100E68000D9609A92D4801F09FFF4FF404630993DB
:100E78000A9500240B940C940D96294F09A938461D
:100E880001F092FF4FF4C85309930A950B940C9400
:100E98000D9609A9234801F087FF902309930A9525
:100EA8000B940C940D9609A91F4801F07DFF4FF48F
:100EB800A05309930A950B940C9409230D9309A93F
:100EC800384601F071FF082309930A950B940C9496
:100ED8000D9609A9154801F067FF44F203630993C9
:100EE8000A950B940C940D9609A9114801F05CFF22
:100EF8004FF4224309930A950B940C940D9609A973
:100F08000C4801F051FF22462146582001F0C0FB51
:100F1800582001F0CDFB51E7006801400004024071
:100F2800001802400000024000280240000C024065
:100F380000200240001C02400268094B9A4200D07F
:100F4800704782B003F59C335A6C42F001025A6430
:100F58005B6C03F001030193019B02B0704700BF73
:100F68000000014010B5A8B0044600212391249147
:100F7800259126912791842202A8FFF7B9FA2268C1
:100F8800174B9A4201D028B010BD4023029302A803
:100F980004F046FA08BB134B5A6C42F010025A642C
:100FA8005A6C02F010020092009A1A6B42F0020288
:100FB8001A631B6B03F002030193019BC023239365
:100FC800022324930023259303232693072327939F
:100FD80023A9054801F0E8FED5E7FFF703FCDAE7A7
:100FE80000100140003802400004024008B5FFF735
:100FF8003FFE08BD30B589B004460268444B9A42AA
:1010080005D02268434B9A4242D009B030BD424BCA
:101018001B684BB9414A516C41F400015164526C50
:1010280002F400020192019A01333B4A1360F02353
:101038000393022304930025059506950A23079335
:1010480003A9374801F0B0FE3648374B03604FF02C
:10105800C063436040238360C5604FF480630361CD
:101068004FF4006343614FF4005383614FF480737E
:10107800C3614FF400330362456201F0A5FB20B958
:10108800284B23679C63E366BBE7FFF7ABFBF7E7F7
:10109800214B1B684BB9214A516C41F40001516442
:1010A800526C02F400020292029A01331A4A136047
:1010B80001230393022304930025059506950A232B
:1010C800079303A9194801F06FFE1948194B0360EB
:1010D8004FF0C06343608560C5604FF4806303616F
:1010E8004FF4006343614FF4005383614FF48073FE
:1010F800C3614FF400330362456201F065FB20B918
:101108000B4B23679C63E3667FE7FFF76BFBF7E70F
:10111800045C0140245C0140941600200038024021
:101128000020024044140020706402400000024085
:10113800E4130020A064024010B504460268194B6D
:101148009A4204D02268184B9A4215D010BD174A0B
:101158001368013B136023B9154A536C23F4000349
:101168005364F021134801F021FF206F01F092FB36
:10117800E06E01F08FFBE5E70C4A1368013B136052
:1011880023B90B4A536C23F40003536401210A4822
:1011980001F00CFF206F01F07DFBE06E01F07AFB9F
:1011A800D4E700BF045C0140245C01409416002091
:1011B800003802400020024000000240FEE7FEE73F
:1011C800FEE7FEE7FEE770477047704708B501F095
:1011D800F5F908BD08B5024801F0C8FB08BD00BF15
:1011E8004414002008B5024801F0C0FB08BD00BF48
:1011F800E413002008B5024801F0D6FC08BD00BF82
:101208005416002008B50548054B0360054A536885
:1012180023F48033536003F0AFF908BDE0170020D2
:10122800045C0140005C014008B50548054B0360BB
:10123800054A536A23F48033536203F09DF908BDCD
:101248005C170020245C0140005C0140704708B531
:10125800FFF7FCFF08BD08B5FFF7B2FA08BD7047F5
:101268002DE9F0478AB082464F4C636C43F4000383
:101278006364636C03F400030093009B236B43F4E3
:1012880080732363236B03F480730193019B236BA7
:1012980043F480732363236B03F480730293029BEC
:1012A800236B43F480732363236B03F480730393EA
:1012B800039B802305934FF00209CDF818904FF057
:1012C8000008CDF81C80032708970A260996374D91
:1012D80005A9284601F068FD20230593CDF818904C
:1012E800CDF81C800897099605A9284601F05CFDF1
:1012F80040230593CDF81890CDF81C8008970996DF
:1013080005A9284601F050FD10230593CDF8189043
:10131800CDF81C800897099605A9284601F044FDD8
:10132800236B43F480032363236B03F48003049348
:10133800049BDAF800201E4B9A420AD000220E21A4
:101348003C2001F0A5F93C2001F0B2F90AB0BDE853
:10135800F087184C4FF0C06363604023A360C4F863
:101368000C804FF4806222614FF4006262614FF496
:101378000052A2614FF48072E2614FF4003222629F
:1013880004226262A762C4F82C80C4F830800A4B39
:101398002360CAF86C40C4F838A0204601F07AFAF5
:1013A800204601F011FAC9E7003802400020024047
:1013B800045C0140FC1600207064024010B5A2B025
:1013C8000C4601A804F002FB42F6113245F22263F2
:1013D8009C4218BF944203D04AF644439C4211D120
:1013E8004FF4801301934FF48003119340F2AD132F
:1013F80002930223049313230A9301A804F010F81C
:1014080022B010BD4FF4801301934FF48003119361
:101418004FF4AC7302930723049301230A9301A8A2
:1014280003F0FEFFECE708B5FFF7D0F908BD08B5F3
:10143800FFF7D2F908BD704738B50B4803F001FA39
:1014480005460A4803F0FDF90446122D18BF022D7F
:1014580004D0222C18BF022C03D038BDFFF7FFFEA2
:10146800F7E7FFF7E8FFF8E7E01700205C17002030
:10147800F0B58BB005463B4C636C43F400036364E2
:10148800636C03F400030193019B236B43F0400357
:101498002363236B03F040030293029B4FF48063A2
:1014A8000593022606960027079708960A230993AC
:1014B80005A92D4801F078FC236B43F080032363D2
:1014C800236B03F080030393039B4FF400430593BE
:1014D80006970797089605A9244801F065FC236B31
:1014E80043F480032363236B03F480030493049B76
:1014F8002A681F4B9A4211D000220F21462001F082
:10150800C7F8462001F0D4F800220F21282001F066
:10151800BFF8282001F0CCF80BB0F0BD154C67607F
:10152800A760E7604FF4806222614FF40062626155
:101538004FF40052A2614FF48072E2614FF400321E
:10154800226267620322A262E76227630A4B236072
:101558002C67A563204601F09DF9204601F034F977
:10156800CAE700BF0038024000180240001C0240D1
:10157800245C01409C160020B86402402DE9F04F1D
:1015880083B0364D364B2B60DFF8E080D8F8043056
:1015980023F48033C8F804300192EA6168600026B9
:1015A8006E612E634FF0800BC5F834B0AE6301272F
:1015B800EF63AE604FF400532B61AF614FF0400A08
:1015C800C5F840A04FF02009C5F844904FF480308A
:1015D800A864EE644FF4802028656E65AE6504202B
:1015E800E86500912966284602F0BCFE1D4C1E4B9A
:1015F8002360D8F8243023F48033C8F82430019BC2
:10160800E3610323636066612663C4F834B0A663AC
:10161800E763A7602661A761C4F840A0C4F84490B6
:101628004FF48033A364E6644FF480232365666532
:10163800A6650423E365009A2266204602F092FE1E
:101648002A68136843F4803313602268136843F4EC
:101658008033136003B0BDE8F08F00BFE0170020AF
:10166800045C01405C170020245C0140005C0140E0
:10167800F8B505460F461446FFF7D6FDFFF7C2FD3D
:101688001F4E002221463046FFF798FE1D4B33605F
:10169800304603F0D6F8B8B11B481C4B036003F082
:1016A800D0F8B0B1B5F5007F18D00521224600204A
:1016B800FFF764FF164B9B683420984748F694134D
:1016C80098420DD00120F8BD00213046FFF7D0FE2A
:1016D800E2E700210C48FFF7C3FDE3E70A21E5E74D
:1016E8000B4EF36A342098470A4B1E60366823462F
:1016F800642245EA07013420B0470020E3E700BF31
:101708005C170020245C0140E0170020045C0140C5
:10171800080000206418002070B58AB0444B83424A
:1017280043D0444C236B43F002032363236B03F041
:1017380002030393039B4FF48073059312230693CC
:101748000025079502230893042309933A4E05A917
:10175800304601F029FB4FF40073059305A9304684
:1017680001F022FB236C43F400132364236C03F47D
:1017780000130493049B236A43F400132362236A2F
:1017880023F4001323622A460F211F2000F080FF54
:101798001F2000F08DFF2A460F21202000F078FF3F
:1017A800202000F085FF0AB070BD224C236B43F067
:1017B80080032363236B03F080030193019B802341
:1017C8000593122306930025079502230893042303
:1017D80009931A4E05A9304601F0E6FA4FF48073D2
:1017E800059305A9304601F0DFFA236C43F40003A2
:1017F8002364236C03F400030293029B236A43F4DB
:1018080000032362236A23F4000323622A460F217C
:10181800482000F03DFF482000F04AFF2A460F21EB
:10182800492000F035FF492000F042FFBBE700BF28
:10183800681800200038024000040240001C0240E2
:1018480010B5044602F058F8A0B90C4B9C4212D0CF
:101858000B4B23600B4B63600023A3600122E26003
:1018680023616361E36123622046FFF755FF204649
:1018780001F016FE10BD044B2360EBE7681800204A
:101888000054004032279140005C004010B50446E7
:1018980001F06BFE2046FFF7D3FF10BD70B584B092
:1018A80004460D464FF47A760296BDF824600196F8
:1018B800089E009601F072FE064610B9304604B044
:1018C80070BD29462046FFF7E1FFF7E770B584B001
:1018D80004460D464FF47A760296BDF824600196C8
:1018E800089E009601F030FF064610B9304604B055
:1018F80070BD29462046FFF7C9FFF7E708B502483B
:10190800FFF79EFF08BD00BF681800207047000061
:1019180000B585B0ADF80E2092B2130AADF80E30BE
:1019280043EA0223ADF80E30022301930DF10E02B3
:1019380000920A4601460348FFF7B0FF05B05DF87C
:1019480004FB00BF6818002000B585B00A460023D4
:10195800ADF80E30022301930DF10E0100910146FE
:101968000648FFF7B3FFBDF80E30180240EA13200F
:1019780080B2ADF80E0005B05DF804FB68180020D1
:1019880008B500F02DFE08BD08B5FFF7C1FF00201F
:1019980008BD000038B50346134A106880B1012914
:1019A8000FD0DDB210224FF484612846FFF7ECFF18
:1019B8000446102240F222412846FFF7E5FF204462
:1019C80038BDDDB24FF400724FF484612846FFF74A
:1019D800DBFF04464FF4007240F222412846FFF72D
:1019E800D3FF2044ECE700BFC018002008B5002151
:1019F800FFF7D0FF08BD08B50021FFF7CBFF08BDF2
:101A080038B505460121FFF7C5FF0446012202212A
:101A1800E8B2FFF7B9FF204438BD000070B51D4B90
:101A28001C680CB9204670BD05460E460121FFF71B
:101A3800B1FF0446022EF5D0EDB24FF400724FF418
:101A480084612846FFF7A0FF04444FF4007240F277
:101A580022412846FFF798FF044400222D212846FA
:101A6800FFF792FF044400222E212846FFF78CFF3F
:101A78000444002205212846FFF786FF044400227B
:101A880011462846FFF780FF0444024B00221A60E3
:101A9800C8E700BFC01800202DE9F04106460C46F3
:101AA800642925D8C1EB8117464B83FB0723FF1711
:101AB800C7EB6317FFB2444B1D6845B13E2F19D8D9
:101AC800002C3AD101213046FFF764FF05463F4B11
:101AD8001B68002B73D0632C51D8C4EB0414240169
:101AE800384B83FB0423E417C4EB6314E4B247E0E8
:101AF8006427E0E700213046FFF74CFF0746F5B2C0
:101B080040F27F121C212846FFF73EFF074440F2AF
:101B18007F121D212846FFF737FF074440F27F1246
:101B280026212846FFF730FF074440F27F1227217D
:101B38002846FFF729FFC519C9E700213046FFF7F6
:101B480029FF8046F5B247F4A0773A461C2128467B
:101B5800FFF71AFF80443A461D212846FFF714FF75
:101B680080443A4626212846FFF70EFF80443A462D
:101B780027212846FFF708FF00EB0805A7E7EF2411
:101B8800F6B244F4807422464FF480613046FFF781
:101B9800FBFE0544224640F201413046FFF7F4FEC1
:101BA8000544224640F204413046FFF7EDFE054465
:101BB800224640F205413046FFF7E6FE0544284636
:101BC800BDE8F0811F85EB51C0180020BC1800202B
:101BD8002DE9F84F804691469A46CFB201F47F45E9
:101BE800FFF78CFE5FFA88F403224FF481712046D8
:101BF800FFF7CAFE0646002240F617012046FFF707
:101C0800C3FE064400224FF481712046FFF7BCFE54
:101C180000EB060B6C2239212046FFF7B5FE834402
:101C2800CDB3132201212046FFF7AEFE00EB0B06D1
:101C38003220FFF7A5FE002F00F0C880E74B0122F5
:101C48001A60022F53D0032F75D097422BD040F241
:101C5800033205212046FFF797FE0644012240F291
:101C680001612046FFF790FE0644012240F202611E
:101C78002046FFF789FE0644002240F20461204610
:101C8800FFF782FE0644002240F205612046FFF776
:101C98007BFE06449DE0032201212046FFF774FEE7
:101CA80000EB0B06C4E740F60C4205212046FFF77F
:101CB8006BFE0644002240F201612046FFF764FEF5
:101CC8000644002240F202612046FFF75DFE06440A
:101CD800022240F204612046FFF756FE0644022223
:101CE80040F205612046FFF74FFE064471E040F2DE
:101CF800033205212046FFF747FE0644012240F241
:101D080001612046FFF740FE0644012240F20261CD
:101D18002046FFF739FE0644002240F204612046BF
:101D2800FFF732FE0644002240F205612046FFF725
:101D38002BFE06444DE0B5F5006F23D040F60F7238
:101D480005212046FFF720FE0644012240F20161EA
:101D58002046FFF719FE0644012240F202612046A0
:101D6800FFF712FE0644022240F204612046FFF704
:101D78000BFE0644022240F205612046FFF704FEEE
:101D8800064426E040F60F7205212046FFF7FCFDC9
:101D98000644032240F201612046FFF7F5FD0644A0
:101DA800032240F202612046FFF7EEFD06440322BB
:101DB80040F204612046FFF7E7FD0644032240F2A3
:101DC80005612046FFF7E0FD064402E0834B002250
:101DD8001A60002D00F0E880814B01221A60B5F5E9
:101DE800407F77D032D8B5F5807F00F0B080B5F568
:101DF800007F40F0D7804FF4436204212046FFF76C
:101E0800C3FD0644DB224FF48A612046FFF7BCFD80
:101E180006444FF4C04202212046FFF7B5FD0644B0
:101E280002224FF4C1612046FFF7AEFD06440222AC
:101E380040F209612046FFF7A7FD06440E224FF441
:101E4800E0612046FFF7A0FD0644B0E0B5F5006F5D
:101E580040F0A88040F63C7204212046FFF794FD2C
:101E68000644DB224FF48A612046FFF78DFD0644C5
:101E7800DB224FF488612046FFF786FD064446F2D0
:101E8800A03202212046FFF77FFD0644022240F2DD
:101E980006612046FFF778FD0644022240F20761FA
:101EA8002046FFF771FD064402224FF4C161204627
:101EB800FFF76AFD0644022240F209612046FFF757
:101EC80063FD06440D224FF4E0612046FFF75CFDF8
:101ED80006446CE0112228212046FFF755FD0644F0
:101EE800202229212046FFF74FFD064420222A21DF
:101EF8002046FFF749FD064440F2033204212046FC
:101F0800FFF742FD0644DB224FF488612046FFF7C5
:101F18003BFD064446F2503202212046FFF734FDCD
:101F28000644022240F206612046FFF72DFD0644D2
:101F3800022240F207612046FFF726FD06440D22E3
:101F48004FF4E0612046FFF71FFD06442FE04FF4F1
:101F5800437204212046FFF717FD0644DB224FF4A5
:101F680088612046FFF710FD064446F250320221F0
:101F78002046FFF709FD0644022240F2066120468A
:101F8800FFF702FD0644022240F207612046FFF7F0
:101F9800FBFC06440D224FF4E0612046FFF7F4FCF9
:101FA800064404E0013602E00D4B00221A60BAF53F
:101FB800FA4F00F02B8125D8BAF57A5F00F01E8120
:101FC80010D945F222639A4540F0308143224FF4FC
:101FD80004712046FFF7D8FC064437E0C0180020FB
:101FE800BC180020BAF5FA5F29D042F611339A4599
:101FF80040F01C8113224FF404712046FFF7C4FC03
:10200800064423E04BF680339A4500F00781D74B0E
:102018009A4507D1A3224FF404712046FFF7B4FC78
:10202800064413E04AF644439A4540F0FF80732281
:102038004FF404712046FFF7A7FC064406E003228C
:102048004FF404712046FFF79FFC0644B5F5006F76
:1020580000F0F48044F210024FF440712046FFF77C
:1020680093FC0644002240F202312046FFF78CFC24
:1020780006440A224FF402712046FFF785FC00EB64
:10208800060A01224FF400712046FFF77DFC8244C6
:10209800002F00F09A80022F00F0D9804FF4407290
:1020A80003212046FFF770FC00EB0A0600222221DC
:1020B8002046FFF769FC0644002223212046FFF74B
:1020C80063FC06444FF4407236212046FFF75CFC5F
:1020D800064443F2030201212046FFF755FC06445B
:1020E800B5F5006F00F0E980052251212046FFF781
:1020F8004BFC064443F2033201212046FFF744FC1F
:102108000644222260212046FFF73EFC064449F699
:1021180025724C212046FFF737FC06440F20FFF7B5
:102128002FFC01222D212046FFF72EFC0644012218
:102138002E212046FFF728FC06444FF44C72032159
:102148002046FFF721FC0644332254212046FFF79E
:102158001BFC064440F20110FFF712FCEE2260213E
:102168002046FFF711FC0644C0224FF4C261204606
:10217800FFF70AFC0644C02240F211612046FFF72F
:1021880003FC064410224FF484612046FFF7FCFB51
:102198000644C02240F212612046FFF7F5FB0644D0
:1021A800C02240F213612046FFF7EEFB06441022DE
:1021B80040F222412046FFF7E7FB00EB060A4946BA
:1021C8004046FFF769FC43F20337A5B1B5F5007F38
:1021D80018BFB5F5807F78D0B5F5006F00F08E8018
:1021E800B5F5806F18BFB5F5407F00F0A880494667
:1021F8004046FFF751FC5046BDE8F88F33224FF4B4
:1022080004712046FFF7C0FB06441FE763224FF422
:1022180004712046FFF7B8FB064417E783224FF402
:1022280004712046FFF7B0FB06440FE783224FF402
:1022380004712046FFF7A8FB064407E744F218029A
:102248004FF440712046FFF79FFB06440AE74FF41E
:1022580080722D212046FFF797FB00EB0A074FF409
:1022680080722E212046FFF78FFB0744404B1B78D6
:10227800BBB14FF401424FF488712046FFF784FB4D
:1022880007443B4B00221A704FF49670FFF778FB17
:1022980000224FF484612046FFF776FB00EB070A23
:1022A800FCE648F208124FF488712046FFF76CFBF1
:1022B80007443220FFF764FBEAE740F20522512188
:1022C8002046FFF761FB064414E747F0130201219B
:1022D8002046FFF759FB00EB0A0502224FF4C461C0
:1022E8002046FFF751FB05444FF4605240F211417C
:1022F8002046FFF749FB00EB050A78E747F0130291
:1023080001212046FFF740FB00EB0A0502224FF4AB
:10231800C4612046FFF738FB05444FF4C0524FF420
:1023280082612046FFF730FB05444FF4C05240F26B
:1023380011412046FFF728FB00EB050A57E70B225F
:1023480018212046FFF720FB00EB0A050B221A2173
:102358002046FFF719FB05444FF4C0524FF4826141
:102368002046FFF711FB00EB050A40E70077010064
:102378000400002038B502294DD0032970D0012966
:1023880024D0C4B240F2033205212046FFF7FCFAFC
:102398000546012240F201612046FFF7F5FA05449F
:1023A800012240F202612046FFF7EEFA05440022BE
:1023B80040F204612046FFF7E7FA0544002240F2A4
:1023C80005612046FFF7E0FA284423E0C4B240F64E
:1023D8000C4205212046FFF7D7FA0546002240F2B5
:1023E80001612046FFF7D0FA0544002240F202615D
:1023F8002046FFF7C9FA0544022240F2046120464C
:10240800FFF7C2FA0544022240F205612046FFF7B1
:10241800BBFA284438BDC4B240F203320521204635
:10242800FFF7B2FA0546012240F201612046FFF7A4
:10243800ABFA0544012240F202612046FFF7A4FAF4
:102448000544002240F204612046FFF79DFA054446
:10245800002240F205612046FFF796FA2844D9E7A2
:10246800C4B240F60F7205212046FFF78DFA0546E3
:10247800012240F201612046FFF786FA0544012255
:1024880040F202612046FFF77FFA0544022240F23B
:1024980004612046FFF778FA0544022240F20561FC
:1024A8002046FFF771FA2844B4E7000008B5B1F5F3
:1024B800FA4F44D01CD8B1F57A5F39D00AD945F221
:1024C8002263994249D143224FF40471C0B2FFF705
:1024D8005BFA2CE0B1F5FA5F23D042F6113399424A
:1024E8003BD113224FF40471C0B2FFF74DFA1EE03E
:1024F8004BF68033994229D01B4B994206D1A3222F
:102508004FF40471C0B2FFF73FFA10E04AF64443B3
:10251800994222D173224FF40471C0B2FFF734FA02
:1025280005E003224FF40471C0B2FFF72DFA08BD8D
:1025380033224FF40471C0B2FFF726FAF7E763229B
:102548004FF40471C0B2FFF71FFAF0E783224FF48B
:102558000471C0B2FFF718FAE9E783224FF4047157
:10256800C0B2FFF711FAE2E70077010008B50022D0
:102578001146C0B2FFF708FA0023024A1360024A64
:10258800136008BDC0180020BC18002008B5FFF76C
:10259800BDF908BD10B50446FFF7B0F90021E0B257
:1025A800FFF7D2F910BD08B5032000F05FF800204E
:1025B80003F092FBFEF7BEFB002008BD034A11683A
:1025C800034B1B780B441360704700BFC4180020EE
:1025D80038000020014B1868704700BFC41800205D
:1025E80038B50446FFF7F6FF0546B4F1FF3F02D0C1
:1025F800044B1B781C44FFF7EDFF401BA042FAD3A5
:1026080038BD00BF38000020002804DB0901C9B22A
:10261800044B1954704700F00F000901C9B2024B6E
:102628001954704700E400E014ED00E000B500F034
:102638000700C0F1070CBCF1040F28BF4FF0040CD1
:10264800031D062B0FD9C31E4FF0FF3E0EFA0CF0E8
:1026580021EA000199400EFA03FE22EA0E0241EA3D
:1026680002005DF804FB0023EEE700000649CB6892
:1026780023F4E0631B041B0C000200F4E060034336
:10268800024A1A43CA60704700ED00E00000FA05EC
:1026980010B50446054BD868C0F30220FFF7C6FF03
:1026A80001462046FFF7B0FF10BD00BF00ED00E077
:1026B800002807DB00F01F02400901239340024A6B
:1026C80042F82030704700BF00E100E030B40568F0
:1026D8002C6824F480242C60046863608368402B91
:1026E80005D0036899600368DA6030BC70470368F6
:1026F8009A600368D960F8E710B40168CAB2103A62
:102708000A4BA3FB02431B09094CE35CC3655F2A20
:1027180007D9084B0B4004338365806D5DF8044B83
:102728007047044B0B408365F7E700BFABAAAAAA22
:10273800F45D000800FCFFFF836A826992B9012BEF
:102748000AD0022B02D00BB100207047C36A13F0E5
:10275800807F28D100207047C36AB3F1C07F24D09E
:1027680000207047B2F5005F09D0022B25D9032B52
:1027780025D1C36A13F0807F23D100207047032B33
:1027880003D8DFE803F01404140A00207047C36A72
:1027980013F0807F0DD100207047C36AB3F1C07F6A
:1027A80009D00020704701207047012070470120A0
:1027B80070470120704701207047012070470020B2
:1027C800704701207047000070B50446FFF702FF0C
:1027D800002C5BD00546002384F83430022384F8AB
:1027E80035302268136823F00103136023681A68E0
:1027F80012F0010F0AD0FFF7EDFE431B052BF5D9A8
:1028080020236365032084F8350070BD1A682049C9
:1028180011406268A0680243E068024320690243ED
:1028280060690243A0690243E0690243206A0243E7
:102838000A43616A04291ED01A602668756925F062
:102848000705636A1D43042B07D1A36A1D43E36A86
:102858001BB12046FFF770FF90B975612046FFF75E
:102868004BFFE26D3F2393408360002060650123A6
:1028780084F83530C9E7E16A206B01430A43DBE796
:1028880040236365012084F83500BEE70120BCE7DA
:102898003F8010F000282DD038B5054690F8350057
:1028A800C0B2022825D02A68136823F001031360F8
:1028B8002B6800241C602B685C602B689C602B686C
:1028C800DC602B681C612B6821225A612846FFF7BF
:1028D80013FFEA6D3F2393408360EC632C646C64C0
:1028E800AC64EC642C656C6585F8354085F834403B
:1028F800204638BD0120704738B50446856D90F8EC
:102908003400012830D0012084F8340094F83500D0
:10291800C0B2012804D0002384F83430022038BD26
:10292800022084F83500002060652046FFF7CEFEBF
:10293800E26D3F239340AB602268136843F01603AF
:1029480013602268536943F080035361236C23B1F9
:102958002268136843F0080313602268136843F081
:10296800010313600020DAE70220D8E7F0B583B04E
:10297800044600230193724B1D68724BA3FB053577
:10298800AD0A876D3E68C26D08239340334210D06C
:1029980003681A6812F0040F0BD01A6822F00402B8
:1029A8001A60C26D08239340BB60436D43F0010376
:1029B8004365E26D01239340334209D0226852698E
:1029C80012F0800F04D0BB60636D43F002036365AF
:1029D800E26D04239340334209D02268126812F052
:1029E800020F04D0BB60636D43F004036365E26DBE
:1029F80010239340334224D02268126812F0080F43
:102A08001FD0BB6023681A6812F4802F0DD01B6892
:102A180013F4002F04D1236C9BB12046984710E093
:102A2800A36C73B1204698470BE01A6812F4807FB4
:102A380003D11A6822F008021A60236C0BB12046F1
:102A48009847E26D20239340334255D0226812689C
:102A580012F0100F50D0BB6094F83530DBB2052B64
:102A68000ED023681A6812F4802F33D01B6813F431
:102A7800002F2AD1636C002B3ED0204698473BE0BC
:102A88002268136823F0160313602268536923F041
:102A980080035361236CA3B12268136823F00803F1
:102AA8001360E26D3F239340BB60002384F8343009
:102AB800012384F83530236D002B3FD020469847FA
:102AC8003CE0A36C002BE7D1EBE7E36BA3B1204616
:102AD800984711E01A6812F4807F09D11A6822F029
:102AE80010021A60002384F83430012384F835304A
:102AF800E36B0BB120469847636DFBB1636D13F030
:102B0800010F17D0052384F835302268136823F0A5
:102B180001031360019B01330193AB4204D823687E
:102B28001B6813F0010FF5D1002384F8343001231A
:102B380084F83530E36C0BB12046984703B0F0BDFC
:102B480040000020B5814E1B38B310B5044690F8FC
:102B58003930EBB1022384F839302268136823F442
:102B6800403361680B4313602268536B23F00703FB
:102B7800A1680B4353632268116C094B0B40E16851
:102B88000B4313640020E063012384F8393010BD3F
:102B980080F83830FEF7E6F8DCE70120704700BF20
:102BA80000C0FFFF7047704770B5044603685D6852
:102BB8001E6815F0010F16D016F4807F13D01A681E
:102BC80022F480721A60C36B43F00103C363036885
:102BD80001229A60042380F83930002380F83830C5
:102BE800436903B1984715F0200F18D016F4005F19
:102BF80015D02268136823F4005313602368202239
:102C08009A60E36B43F00203E363042384F83930EA
:102C1800002384F8383063690BB12046984715F0D3
:102C2800080F18D016F4006F15D02268136823F423
:102C380000631360236808229A60E36B43F004037F
:102C4800E363042384F83930002384F83830636957
:102C58000BB12046984715F0040F02D016F4806F88
:102C680020D115F0020F16D016F4007F13D0226879
:102C7800136823F400731360236802229A60E36BDD
:102C8800E363012384F83930002384F8383023695A
:102C98000BB12046984715F0100F02D016F4805F4C
:102CA8000CD170BD2268136823F480631360236815
:102CB80004229A602046FFF775FFD2E7226813685E
:102CC80023F480531360236810229A60E36BE36354
:102CD800012384F83930002384F838302046FFF780
:102CE80062FFDEE790F83820012A59D030B4034655
:102CF800012280F83820022280F8392000EB0112E6
:102D0800D0698A1C12019A5840EA024209380128FF
:102D18001DD9881C03EB0010406842EA006239BBE9
:102D28001C68656A1F48284010436062186803EBF6
:102D3800011294698461D269093A012A0FD90122E2
:102D480083F83920002083F8380030BC7047881C8D
:102D580003EB0010406800F07F400243DFE70231D8
:102D680003EB01114A68196822F07F428A62E6E79C
:102D78001C68E5690B4828401043E061186803EBBC
:102D8800011294690461D269093A012AD7D802313B
:102D980003EB01114A68196822F07F420A62CEE704
:102DA80002207047F0FFFC0000230F2B00F2F48094
:102DB80070B582B066E085684FEA430E032404FAD2
:102DC8000EF425EA0405CC6804FA0EF42C4384605A
:102DD800446824EA02044A68C2F300129A40224373
:102DE80042605DE0DC08083450F8242003F0070551
:102DF800AD004FF00F0E0EFA05FE22EA0E0E0A691C
:102E0800AA4042EA0E0240F824205DE0092200E0D0
:102E1800002202FA0EF22A430234604D45F82420BB
:102E28005F4A94686FEA0C0224EA0C054E6816F4AF
:102E3800801F01D04CEA0405594CA560E46802EAF9
:102E480004054E6816F4001F01D04CEA0405544CE2
:102E5800E560646802EA04054E6816F4003F01D094
:102E68004CEA04054E4C6560246822404D6815F410
:102E7800803F01D04CEA0402494C226001330F2BF9
:102E880000F2888001229A400C6804EA020C32EAB7
:102E98000404F3D14C6804F00304013C012C8AD9E2
:102EA8004A6802F00302032A09D0C4685D000322BD
:102EB800AA4024EA02048A68AA402243C2604A68F7
:102EC80002F00302022A8DD004684FEA430E03225F
:102ED80002FA0EF224EA02044A6802F0030202FA35
:102EE8000EF2224302604A6812F4403FC6D02D4ACF
:102EF800546C44F480445464526C02F4804201924D
:102F0800019A9C08A51C254A52F8255003F0030E87
:102F18004FEA8E0E0F2202FA0EF225EA0205224A25
:102F280090423FF475AF02F58062904222D002F5DC
:102F38008062904220D002F5806290421ED002F555
:102F4800806290421CD002F5806290421AD002F54D
:102F58008062904218D002F58062904216D002F545
:102F68008062904214D002F5806290423FF44EAFE6
:102F78000A224EE701224CE702224AE7032248E7E9
:102F8800042246E7052244E7062242E7072240E7F3
:102F980008223EE702B070BD704700BF003801400C
:102FA800003C0140003802400000024000230F2B83
:102FB80000F29B80F0B52DE0092500E0002505FA18
:102FC8000CF5A54275D004685D004FF0030C0CFAAF
:102FD80005FC24EA0C0404604FEAD30E0EF1080E37
:102FE80050F82E4003F00706B6000F25B54024EA36
:102FF800050440F82E40C46824EA0C04C460446800
:1030080024EA02024260826822EA0C0282600133EA
:103018000F2B69D801229A4002EA010632EA01041C
:10302800F5D14FEA930E0EF10205304C54F82540C5
:1030380003F0030C4FEA8C0C0F2505FA0CF73C4003
:103048002B4DA842BAD005F58065A84221D005F5D8
:103058008065A8421FD005F58065A8421DD005F5FA
:103068008065A8421BD005F58065A84219D005F5F2
:103078008065A84217D005F58065A84215D005F5EA
:103088008065A84213D005F58065A84294D00A252A
:1030980095E7012593E7022591E703258FE70425A6
:1030A8008DE705258BE7062589E7072587E70825A6
:1030B80085E7104C256825EA06052560656825EA38
:1030C80006056560E56825EA0605E560A56825EA60
:1030D8000605A560054E0EF1020456F8245025EAAF
:1030E800070546F824506EE7F0BD704700380140E8
:1030F80000000240003C014003689A6912F0020F88
:1031080001D000229A6203689A6912F0010F03D174
:103118009A6942F001029A61704710B4019CC1F3A8
:10312800090141EA02411943214321F000410268A3
:103138005368640D04F4806444F07F7444F4583494
:1031480044F47F7444F0030423EA04030B435360FC
:103158005DF8044B70472DE9F041044603689E6909
:1031680016F010067ED00D4690461022DA61002631
:1031780037462368986910F0200F32D18FBBB5F11C
:10318800FF3FF6D0FFF726FAA0EB0800A84201D8C7
:10319800002DEED121684A6802F4804294F842304A
:1031A800DBB2886910F4004F04D0203B18BF01231C
:1031B80002B973B923689B6913F0200FD9D1FFF7BF
:1031C80009FAA0EB08001928F4D946F020060127CF
:1031D800CFE74B6843F480434B60FFF7FBF9804629
:1031E800E8E70FB92022DA6146F0040601252268D3
:1031F800936913F4807F05D046F001064FF480717F
:10320800D161012513F4806F06D046F008062268C4
:103218004FF48061D161012513F4007F24D046F07A
:10322800020623684FF40072DA6101252046FFF791
:1032380063FF2268536823F0FF7323F48B3323F46E
:10324800FF7323F001035360636C334363642023EB
:1032580084F84130002384F8423084F8403028460E
:10326800BDE8F0810025C2E7002DF8D0DEE770B593
:1032780004460D46164623689B6913F0020F22D1B7
:10328800324629462046FFF766FFF0B9B5F1FF3F01
:10329800F1D0FFF79FF9801BA84201D8002DEAD191
:1032A80023689B6913F0020FE5D1636C43F0200398
:1032B8006364202384F84130002384F8423084F882
:1032C8004030012000E0002070BD0120FCE72DE91E
:1032D800F8430546884617461E46DDF820902B68B9
:1032E8009C6938EA04040CBF01230023BB4227D1A0
:1032F8004A4631462846FFF72EFF20BBB6F1FF3F6E
:10330800EDD0FFF767F9A0EB0900B04201D8002E15
:10331800E5D12B689B6938EA03030CBF012300231E
:10332800BB42DCD16B6C43F020036B64202385F82F
:103338004130002385F8423085F84030012000E014
:103348000020BDE8F8830120FBE700002DE9F041EB
:1033580082B0044690461D46089E099F194B00936B
:103368004FF08073EAB2FFF7D8FE3A46314620465E
:10337800FFF77DFFF8B9012D0ED123685FFA88F2B7
:103388009A6200973346002280212046FFF79FFF6C
:10339800A8B902B0BDE8F08123684FEA18229A6202
:1033A8003A4631462046FFF762FF30B923685FFA94
:1033B80088F29A62E5E70120EBE70120E9E70120BE
:1033C800E7E700BF002000802DE9F04182B0044605
:1033D80090461D46089E099F184B00930023EAB2A9
:1033E800FFF79BFE3A4631462046FFF740FFF8B903
:1033F800012D0ED123685FFA88F29A62009733464E
:10340800002240212046FFF762FFA8B902B0BDE8BC
:10341800F08123684FEA18229A623A4631462046DC
:10342800FFF725FF30B923685FFA88F29A62E5E76B
:103438000120EBE70120E9E70120E7E70020008011
:1034480070B504460D46164604E023689B6913F0E0
:10345800200F12D023689B6913F0200F1BD132462E
:1034680029462046FFF777FEB8B9FFF7B3F8801B67
:10347800A842EAD8002DEDD1E7E7636C43F02003BA
:103488006364202384F84130002384F8423084F8B0
:103498004030012000E0002070BD0120FCE77047AB
:1034A80000285DD010B5044690F84130002B46D076
:1034B800242384F841302268136823F00103136041
:1034C8006368226823F0706313612268936823F4A9
:1034D80000439360E368012B36D0A368226843F465
:1034E80004439360E368022B34D02268536823F4C2
:1034F80000635360226851681A4B0B43536022687B
:10350800D36823F40043D360236962691343A16934
:10351800226843EA0123D360E369216A22680B43E6
:1035280013602268136843F001031360002060648D
:10353800202384F84130206384F8420010BD80F8CD
:103548004030FFF7ACFFB3E7A368226843F40043B9
:103558009360C7E72268536843F400635360C9E780
:1035680001207047008000027047A8B110B50446DA
:10357800242380F841300268136823F001031360A4
:10358800FFF7F2FF0020606484F84100206384F8AC
:10359800420084F8400010BD012070472DE9F04F2B
:1035A80083B00D46BDF834A00E9F90F84110C9B203
:1035B800202940F0BC800446904699460C9BBAF1FD
:1035C800000F18BF002B16D090F84030012B00F0E8
:1035D800B2804FF0010B80F840B0FEF7FBFF0646C3
:1035E800009019235A464FF400412046FFF76FFE1A
:1035F80030B101209CE04FF400734364012097E050
:10360800212384F84130402384F842300023636446
:103618000C9A6262A4F82AA06363019600974B464D
:10362800424629462046FFF791FE70B9638D9BB24A
:10363800FF2B0FD9FF222285002300934FF08073C0
:1036480029462046FFF769FD21E0002384F8403031
:1036580058466DE0628D92B22285002300934FF0A8
:103668000073D2B229462046FFF757FD0FE0628D5E
:1036780092B22285002300934FF00073D2B22946FC
:103688002046FFF74AFD638D9BB2002B33D03246AC
:1036980039462046FFF7EBFD00284ED1626A2368C1
:1036A80012789A62636A01336362638D9BB2013B4D
:1036B8009BB26385238D013B9BB22385628D92B2B9
:1036C800002AE0D0002BDED100963B460022802164
:1036D8002046FFF7FCFD90BB638D9BB2FF2BC6D93C
:1036E800FF222285002300934FF08073294620464D
:1036F800FFF713FDC7E7324639462046FFF7A0FE1D
:10370800F8B923682022DA6121684B6823F0FF7337
:1037180023F48B3323F4FF7323F001034B6084F805
:103728004120002384F8423084F8403000E0022031
:1037380003B0BDE8F08F0220FAE70120F8E7012086
:10374800F6E70120F4E700002DE9F04F83B00D46BD
:10375800BDF834A00E9F90F84110C9B2202940F05E
:10376800BD800446904699460C9BBAF1000F18BFDD
:10377800002B16D090F84030012B00F0B3804FF0AA
:10378800010B80F840B0FEF725FF0646009019238C
:103798005A464FF400412046FFF799FD30B1012009
:1037A8009DE04FF400734364012098E0222384F8DD
:1037B8004130402384F84230002363640C9A6262EB
:1037C800A4F82AA06363019600974B46424629460F
:1037D8002046FFF7F9FD70B9638D9BB2FF2B0FD917
:1037E80001222285434B00934FF0807329462046DF
:1037F800FFF793FC21E0002384F8403058466EE040
:10380800628D92B222853B4B00934FF00073D2B287
:1038180029462046FFF781FC0FE0628D92B222858F
:10382800002300934FF00073D2B229462046FFF7D9
:1038380074FC638D9BB2002B34D000963B4600226B
:1038480004212046FFF743FD00284DD123685A6A1A
:10385800636A1A70636A01336362228D013A92B215
:103868002285638D9BB2013B9BB26385638D9BB2BE
:10387800002BDED0002ADCD100963B468021204672
:10388800FFF725FD90BB638D9BB2FF2BC5D90122A5
:103898002285002300934FF0807329462046FFF7C6
:1038A8003CFCC6E7324639462046FFF7C9FDF8B961
:1038B80023682022DA6121684B6823F0FF7323F420
:1038C8008B3323F4FF7323F001034B6084F841200A
:1038D800002384F8423084F8403000E0022003B02E
:1038E800BDE8F08F0220FAE70120F8E70120F6E7AB
:1038F8000120F4E70024008090F8410070470000A0
:1039080070B54D680368DC68C4F30B4425444FEA7E
:10391800C21C03EBC213D3F8884004F47044C3F804
:1039280088400B680468E668C6F30B4633440133E5
:1039380004EBC21443EA0543C4F88830CD68036831
:10394800DC68C4F30A04254403EBC213D3F88C40A3
:1039580004F47044C3F88C408B680468E668C6F3C6
:103968000A0E7344013304EBC21443EA0543C4F856
:103978008C30036803EBC213D3F8944024F0070497
:10398800C3F89440036803EBC2130C69C3F894406E
:1039980091F831E091F832608D69036803EBC21346
:1039A800D3F89C400024C3F89C4091F8303043EA97
:1039B8000E2343EA0643066806EBC21E43EA056384
:1039C800CEF89C300EF1840E036803EBC213D3F8D3
:1039D800985025F0FF05C3F89850036803EBC2130D
:1039E8004D69C3F89850036803EBC213D3F8A0607D
:1039F8002D4D3540C3F8A0500D6A036803EBC21380
:103A0800CE693543C3F8A050036803EBC213D3F85B
:103A1800AC50C3F8AC40036803EBC2134A6AC3F85E
:103A2800AC200B6983B1013B062B05D8DFE803F016
:103A38003A06080604040A00012506E0022504E007
:103A4800022502E0022500E0042503686344D3F858
:103A5800B02002F0E022C3F8B0208B6A05FB03F423
:103A68004B680A689B1A05FB03F303330268624438
:103A780043EA0443C2F8B03003686344D3F8B4405F
:103A88000A4A2240C3F8B42003686344CA6AC3F8E8
:103A9800B42003686344D3F8842042F00102C3F8D9
:103AA800842070BD0325D0E7F8F8FFFF00F8FFFF7A
:103AB800002872D038B5044690F8A130002B67D0A2
:103AC800022384F8A1302268936923F0704393613C
:103AD80021688A696368A0680343E0680343206932
:103AE800034313438B6121688A682D4B1A408A600F
:103AF80020688268A169656941EA05410A438260D4
:103B08002168CA681A40CA602068C268216AE569E3
:103B180041EA05410A43C26021680A691A400A61FC
:103B280020680269A16A656A41EA05410A4302619F
:103B380021684A6913404B61E06A21684B69226B2E
:103B480042EA004213434B6194F8350094F836304A
:103B58001B042168CA6A02F07F42CA622168CA6AE5
:103B680043EA002394F8340003431343CB622268EA
:103B7800536B43F0060353632268936943F00103D0
:103B880093610020C4F8A400012384F8A13038BD53
:103B980080F8A030FDF706F992E70120704700BFD2
:103BA80000F800F0F8B590F8A030012B2CD00446AE
:103BB8000D461646012780F8A070022380F8A13030
:103BC8004FF0340C0CFB020C0CF1380C8E46BEE89E
:103BD8000F00ACE80F00BEE80F00ACE80F00BEE82D
:103BE8000F00ACE80F00DEF80030CCF800303246A9
:103BF80029462046FFF784FE23685F6284F8A17097
:103C0800002084F8A000F8BD0220FCE7024A1368EF
:103C180043F480731360704700700040002800F080
:103C2800FF8170B582B00446036813F0010F29D0F4
:103C3800954B9B6803F00C03042B1AD0924B9B689E
:103C480003F00C03082B0FD06368B3F5803F40D016
:103C5800002B54D18C4B1A6822F480321A601A68EF
:103C680022F480221A6039E0874B5B6813F4800FD6
:103C7800EAD0854B1B6813F4003F03D06368002B20
:103C880000F0D081236813F0020F74D07E4B9B683C
:103C980013F00C0F5ED07C4B9B6803F00C03082BD1
:103CA80053D0E368002B00F08980774A136843F00B
:103CB80001031360FEF78EFC0546734B1B6813F077
:103CC800020F72D1FEF786FC401B0228F5D90320AB
:103CD800ADE16D4A136843F48033136063682BB316
:103CE800FEF778FC0546684B1B6813F4003FC9D102
:103CF800FEF770FC401B6428F5D9032097E1B3F563
:103D0800A02F09D0604B1A6822F480321A601A6812
:103D180022F480221A60E1E75B4B1A6842F48022A1
:103D28001A601A6842F480321A60D7E7FEF752FC2C
:103D38000546554B1B6813F4003FA3D0FEF74AFC19
:103D4800401B6428F5D9032071E14F4B5B6813F4DD
:103D5800800FA6D14C4B1B6813F0020F03D0E36809
:103D6800012B40F06181484A136823F0F803216968
:103D780043EAC1031360236813F0080F46D0636950
:103D880083B3414A536F43F001035367FEF722FCA4
:103D980005463D4B5B6F13F0020F37D1FEF71AFC57
:103DA800401B0228F5D9032041E1374A136823F064
:103DB800F803216943EAC1031360DCE7324A136858
:103DC80023F001031360FEF705FC05462E4B1B6824
:103DD80013F0020FCFD0FEF7FDFB401B0228F5D9E8
:103DE800032024E1284A536F23F001035367FEF7A9
:103DF800F1FB0546244B5B6F13F0020F06D0FEF76C
:103E0800E9FB401B0228F5D9032010E1236813F0D1
:103E1800040F7DD01C4B1B6C13F0805F1ED11A4B16
:103E28001A6C42F080521A641B6C03F080530193A1
:103E3800019B0125154B1B6813F4807F10D0A368E4
:103E4800012B25D0002B3BD10F4B1A6F22F001021A
:103E58001A671A6F22F004021A671EE00025E9E7C4
:103E68000A4A136843F480731360FEF7B3FB0646EF
:103E7800064B1B6813F4807FE1D1FEF7ABFB801B78
:103E88006428F5D90320D2E00038024000700040D1
:103E98006E4A136F43F001031367A36833B3FEF749
:103EA80099FB0646694B1B6F13F0020F2FD1FEF7E3
:103EB80091FB801B41F288339842F3D90320B6E086
:103EC800052B09D0614B1A6F22F001021A671A6F8D
:103ED80022F004021A67E0E75C4B1A6F42F0040212
:103EE8001A671A6F42F001021A67D6E7FEF772FBEB
:103EF8000646564B1B6F13F0020F08D0FEF76AFBFD
:103F0800801B41F288339842F3D903208FE0FDB932
:103F1800A369002B00F08A804C4A926802F00C02D8
:103F2800082A58D0022B19D0484A136823F0807306
:103F38001360FEF74FFB0446444B1B6813F0007FE9
:103F480047D0FEF747FB001B0228F5D903206EE097
:103F58003E4A136C23F080531364D9E73B4A136835
:103F680023F080731360FEF735FB0546374B1B685B
:103F780013F0007F06D0FEF72DFB401B0228F5D971
:103F8800032054E0E369226A1343626A43EA821316
:103F9800A26A5208013A43EA0243E26A43EA026328
:103FA80043F00053294A5360136843F08073136049
:103FB800FEF710FB0446254B1B6813F0007F06D163
:103FC800FEF708FB001B0228F5D903202FE000208C
:103FD8002DE000202BE01D4A5268012B29D002F465
:103FE8008003E1698B4226D102F03F03216A8B42AC
:103FF80023D1616A47F6C0731340B3EB811F1ED10A
:1040080002F44031A36A5B08013BB1EB034F18D1BE
:1040180002F07062E36AB2EB036F14D1002006E08D
:1040280001207047012002E0012000E0002002B0DA
:1040380070BD0120FBE70120F9E70120F7E7012027
:10404800F5E70120F3E70120F1E700BF003802405F
:1040580008B5264B9B6803F00C03042B41D0082BB2
:1040680041D1224B5A6802F03F025B6813F4800F7B
:1040780012D01E4B5968C1F388111D480023A1FBBB
:104088000001FCF7BDF8194B5B68C3F3014301332A
:104098005B00B0FBF3F027E0144B5868C0F38810BE
:1040A8004FEA401CBCEB000C6EEB0E0E4FEA8E1371
:1040B80043EA9C634FEA8C11B1EB0C0163EB0E03EE
:1040C800DB0043EA5173C90011EB000C43F1000314
:1040D800990200234FEA8C2041EA9C51FCF790F8A2
:1040E800D1E7034800E0034808BD00BF003802409C
:1040F80040787D010024F400002800F0A08070B50D
:104108000D460446524B1B6803F00F038B420BD23B
:104118004F4A136823F00F030B431360136803F02F
:104128000F038B4240F08D80236813F0020F17D0E5
:1041380013F0040F04D0474A936843F4E0539360A4
:10414800236813F0080F04D0424A936843F460438D
:104158009360404A936823F0F003A1680B4393608F
:10416800236813F0010F31D06368012B20D0022B94
:1041780025D0384A126812F0020F64D035498A688F
:1041880022F0030213438B60FEF724FA0646314BF4
:104198009B6803F00C036268B3EB820F16D0FEF73E
:1041A80019FA801B41F288339842F0D9032045E080
:1041B800284A126812F4003FE0D101203EE0254A67
:1041C800126812F0007FD9D1012037E0204B1B681C
:1041D80003F00F03AB420AD91D4A136823F00F03FB
:1041E8002B431360136803F00F03AB422DD12368F0
:1041F80013F0040F06D0174A936823F4E053E168DC
:104208000B439360236813F0080F07D0114A936893
:1042180023F46043216943EAC1039360FFF718FF61
:104228000C4B9B68C3F303130B4AD35CD8400B4B6E
:1042380018600B4B186801F04FFD002070BD01207D
:1042480070470120FAE70120F8E70120F6E700BFF0
:10425800003C024000380240045E00084000002094
:104268003C000020014B1868704700BF4000002048
:1042780008B5FFF7F7FF044B9B68C3F38223034A93
:10428800D35CD84008BD00BF00380240FC5D000880
:1042980008B5FFF7E7FF044B9B68C3F34233034AB3
:1042A800D35CD84008BD00BF00380240FC5D000860
:1042B8000F2303600B4B9A6802F0030242609A686E
:1042C80002F0F00282609A6802F4E052C2609B68D1
:1042D800DB0803F4E0530361034B1B6803F00F038F
:1042E8000B60704700380240003C024001290AD0A8
:1042F8000123026B082A08D04268023A012A0CD925
:1043080043F0040070470923F3E74268012A18BF05
:10431800032AF1D143F01003EEE743F06000704741
:104328000E4B1B680E4AA2FB03231B0B9B00016864
:104338000A6822F480320A601A46013B32B10268E8
:10434800126812F4803FF7D100207047D0F880300F
:1043580043F04003C0F8803003207047400000203D
:104368001BECCB95002800F0F38038B5044690F894
:104378007D30002B00F0BA80022384F87D3020467F
:10438800FFF7CEFFE368012B00F0B580022B40F069
:10439800B4802022A368022B00F0B980032B00F020
:1043A800B180012B00F0AB800025236869486A4979
:1043B8008B4218BF834240F0AD80684BC3F8002899
:1043C800E36943B323686349634A934218BF8B4246
:1043D80000F0A480002023686149624A934218BF14
:1043E8008B4200F0A08000EB80004000E3695B0294
:1043F800B0FBF3F05C4BA3FB0023DB08236203EB69
:104408008302A0EB4200082801D901332362236B01
:10441800042B00F08D806368022B18BF002B40F03E
:104428008E80E36B012B00F087804FF4007C2268BC
:1044380011684E4B0B401360226811686368206B4B
:104448000343606B0343A06B034343EA0C032B4312
:10445800606A03432069034360690343206A43EAAF
:1044680000530B43136022685168414B0B40536063
:1044780021684A68A369A06A0343E06A03431343B7
:104488004B60226891683B4B0B40936020688268C0
:10449800236C013B216D0B43A16C0B43E16C0B4377
:1044A800616C013943EA0123134383602268D368AE
:1044B80023F47D6323F00F031B041B0CD3602068D7
:1044C800C268636DA16D0B43216E43EA0143E16D40
:1044D800013943EA01231343C3600020C4F8800074
:1044E800012384F87D3084F87C0038BD80F87C3066
:1044F800FCF780FD40E710224CE700224AE74FF422
:10450800806552E742F001024FF400654DE74FF431
:1045180000654AE7114BC3F8002C51E74FF400201F
:1045280001F006FB57E74FF4801001F001FB5AE752
:10453800236A5B0823626EE74FF0000C77E7E36BB2
:10454800012B02D04FF0000C71E74FF4007C6EE7AE
:104558000120704704580140245801400050014090
:10456800045C0140245C0140CDCCCCCC10C005FFDC
:10457800F01FFFFF0080F8FFE8B138B504460223BA
:1045880080F87D30036800251D6103684FF0FF3215
:104598009A61FFF7C5FE2268536843F00803536029
:1045A8002046FCF7C9FDC4F8805084F87D5084F893
:1045B8007C50284638BD0120704700002DE9F041A5
:1045C800044688461646FEF705F8002E18BFB8F1CF
:1045D800000F61D0054694F87D70FFB2012F5FD1BE
:1045E80094F87C30012B5DD0012384F87C30C4F82A
:1045F8006480A4F86860A4F86A600023C4F8803076
:10460800122284F87D20E26E27491164E26E274960
:10461800D163E26E2649D164E26E13652268B4F86C
:1046280068301C32616EE06EFEF766F9064610BB14
:1046380000212046FFF75AFE2268136903431361DD
:104648002268136843F40033136023685A6912F42C
:10465800E02F14D1FDF7BEFF431BB3F57A7FF4D9E1
:10466800D4F8803043F04003C4F88030002384F845
:104678007C30032711E0002384F87C300DE01A68B1
:1046880012F4803F03D11A6842F480321A60002382
:1046980084F87C30374600E001273846BDE8F081D1
:1046A8000227FAE70227F8E7B74700087D4700081E
:1046B8000548000870B5002A18BF00294CD00446E8
:1046C800134694F87D50EDB2012D48D194F87C2022
:1046D800012A46D0012284F87C206166A4F868305B
:1046E800A4F86A300023C4F88030222284F87D20A0
:1046F800226F1D491164226F1C49D163226F1C4926
:10470800D164226F13652168B4F86830626E1C3179
:10471800206FFEF7F1F8064618B1002384F87C30C4
:104728001BE000212046FFF7E1FD226813690343DF
:1047380013612268136843F40033136023681A680E
:1047480012F4803F03D11A6842F480321A600023C1
:1047580084F87C30354600E00125284670BD0225E6
:10476800FBE70225F9E700BFFB470008C14700083F
:104778000548000810B5846BC369B3F5807F12D073
:104788000021A4F86A102268136823F40033136028
:104798002046FFF7ABFD2268136923EA0003136183
:1047A800012384F87D302046FCF751FD10BD08B583
:1047B800806BFCF750FD08BD10B5846BC369B3F579
:1047C800807F12D02268136823F40033136000211D
:1047D800A4F86A102046FFF789FD2268136923EAC6
:1047E80000031361012384F87D302046FCF71BFE8B
:1047F80010BD08B5806BFCF71AFE08BD10B5846BB8
:10480800D4F8803043F08003C4F88030E36E5B6DE9
:10481800012B07D0236F5B6D012B03D02046FCF7DB
:104828000BFE10BD2268136823F400331360204682
:10483800FFF776FD012384F87D300023A4F86A3061
:10484800ECE790F87D00704710B4036A046A24F01E
:1048580001040462846924F0F00C4CEA021223F08B
:104868000A030B43826103625DF8044B704710B47E
:10487800036A046A24F010040462846924F4704C06
:104888004CEA023223F0A00343EA01138261036277
:104898005DF8044B7047836823F070030B4343F0C3
:1048A800070383607047000090F83D30DBB2012BAE
:1048B8003AD1022380F83D300268D36843F00103FF
:1048C800D36003681A4AB3F1804F18BF93421DD0D2
:1048D800A2F57C42934219D002F58062934215D02A
:1048E80002F58062934211D002F5784293420DD0CE
:1048F80002F57052934209D0A2F59432934205D042
:104908001A6842F001021A60002070479968094A43
:104918000A40062A18BFB2F5803F07D01A6842F04D
:1049280001021A600020704701207047002070477C
:10493800000001400700010030B503683F4A90427B
:1049480014BF4FF0000E4FF0010EB0F1804F14BFAE
:1049580072464EF00102AAB9394CA04214BF002495
:104968000124384DA8420DD064B904F1804404F5FF
:104978008234A04214BF0024012405F50065A84232
:1049880000D01CB123F070034C682343002A33D1B4
:104998002B4A904214BF002201222A4CA0422BD05D
:1049A80052BB02F1804202F58232904214BF0022CB
:1049B800012204F50064A0421ED0EAB9224A9042BE
:1049C80014BF0022012204F59A34A04214D09AB9E7
:1049D8001E4A904214BF0022012204F50064A0423E
:1049E8000AD04AB91A4A904214BF00220122A4F5FB
:1049F8009634A04200D022B123F4407CCB6843EA2D
:104A08000C0323F080034A69134303608A68C26277
:104A18000A6882620F4A904214BF73464EF001033F
:104A28000BB10B69036301234361036913F0010FA1
:104A380003D0036923F00103036130BD0000014086
:104A480000080040000400400044014000180040F5
:104A5800002000400004014060B310B5044690F8FF
:104A68003D3013B3022384F83D30214651F8040B3E
:104A7800FFF762FF012384F8483084F83E3084F859
:104A88003F3084F8403084F8413084F8423084F86C
:104A9800433084F8443084F8453084F8463084F84C
:104AA800473084F83D30002010BD80F83C30FCF7DA
:104AB80043FAD7E70120704710B4846824F47F4C88
:104AC80042EA03220A4342EA0C0282605DF8044B80
:104AD8007047000090F83C30012B76D010B50446A2
:104AE800012380F83C30022380F83D30026890684A
:104AF800374B034093600B68602B4CD029D8402B70
:104B080054D00CD9502B22D1CA6849682068FFF7C5
:104B18009BFE50212068FFF7BEFE002005E0202BF9
:104B28000DD009D9302B0AD00120012384F83D305B
:104B3800002384F83C3010BD0BB1102B05D1194669
:104B48002068FFF7A8FE0020EFE70120EDE701202D
:104B5800EBE7B3F5805F34D0B3F5005F0CD1CB68D9
:104B68004A6889682068FFF7A7FF2268936843F4BA
:104B7800804393600020D8E7702B24D1CB684A6823
:104B880089682068FFF798FF2268936843F07703E5
:104B980093600020C9E7CA6849682068FFF767FE84
:104BA80060212068FFF777FE0020BEE7CA684968E1
:104BB8002068FFF749FE40212068FFF76CFE0020BF
:104BC800B3E70020B1E70120AFE70220704700BF3C
:104BD8008800FEFF026852E8003F23F4907342E821
:104BE80000310029F6D1026802F1080353E8003FBA
:104BF80023F00103083242E800310029F3D1036EA3
:104C0800012B06D02023C0F880300023036683667A
:104C18007047026852E8003F23F0100342E8003171
:104C28000029F6D1EEE7000010B504468368026952
:104C3800134342691343C269134301680868934ADE
:104C480002401A430A602268536823F44053E1681B
:104C58000B435360A269236A1A4321688B6823F4C3
:104C6800306313438B602368894A934219D0894A79
:104C7800934229D0884A93423ED0884A934262D0D0
:104C8800874A934271D0874A934200F08380864ACC
:104C9800934200F09480854A934200F0A580102347
:104CA8003AE0834BD3F8903003F00303032B09D881
:104CB800DFE803F00204AE0601232DE004232BE015
:104CC800082329E0102327E0794BD3F8903003F02C
:104CD8000C030C2B0ED8DFE803F0070D0D0D090DA2
:104CE8000D0D9D0D0D0D0B00002315E0042313E0A1
:104CF800082311E010230FE06D4BD3F8903003F038
:104D08003003202B00F0888019D8002B00F0868013
:104D1800102B40F085800423E069B0F5004F00F0C7
:104D2800AB80082B00F20C81DFE813F0E800FB00F1
:104D3800E6000A01FE000A010A010A010101302BFE
:104D480070D10823E8E75A4BD3F8903003F0C0033A
:104D5800802B69D005D8002B68D0402B68D104235C
:104D6800DAE7C02B66D10823D6E7514BD3F8903049
:104D780003F44073B3F5007F5ED006D8002B5DD0F6
:104D8800B3F5807F5CD10423C6E7B3F5407F59D1E2
:104D98000823C1E7464BD3F8903003F44063B3F5DA
:104DA800006F51D006D8002B50D0B3F5806F4FD18B
:104DB8000423B1E7B3F5406F4CD10823ACE73C4B73
:104DC800D3F8903003F44053B3F5005F44D006D8CD
:104DD800002B43D0B3F5805F42D104239CE7B3F5A1
:104DE800405F3FD1082397E7314BD3F8903003F465
:104DF8004043B3F5004F37D005D8BBB3B3F5804F68
:104E080036D1042388E7B3F5404F33D1082383E72D
:104E1800022381E702237FE702237DE700237BE764
:104E2800102379E7102377E7022375E7002373E758
:104E3800102371E710236FE702236DE700236BE768
:104E4800102369E7102367E7022365E7012363E777
:104E5800102361E710235FE702235DE700235BE788
:104E6800102359E7102357E7022355E7002353E798
:104E7800102351E710234FE7082B5BD8DFE803F036
:104E88001A343A5A375A5A5A1E0000BFF369FFEFCC
:104E9800001001400044004000480040004C004021
:104EA800005000400014014000780040007C0040A1
:104EB80000380240FFF7DCF900283DD0626853084B
:104EC80003EB4003B3FBF2F3A3F110014FF6EF72CB
:104ED800914233D89AB222F00F02C3F3420313432C
:104EE8002268D360002030E0FFF7D2F9E4E7FFF74B
:104EF800AFF8E1E71748E1E7164802E0FFF7B8F92D
:104F080000B3636800EB5300B0FBF3F0A0F11002AC
:104F18004FF6EF739A4217D8236880B2D860002002
:104F280013E0FFF7B5F9EBE7FFF792F8E8E74FF47E
:104F38000040E6E7012008E0002006E0012004E048
:104F4800012002E0002000E001200023A366E366C0
:104F580010BD00BF0024F400436A13F0080F06D008
:104F68000268536823F40043416B0B435360436A60
:104F780013F0010F06D00268536823F40033816AE6
:104F88000B435360436A13F0020F06D0026853685C
:104F980023F48033C16A0B435360436A13F0040F50
:104FA80006D00268536823F48023016B0B435360D7
:104FB800436A13F0100F06D00268936823F48053F5
:104FC800816B0B439360436A13F0200F06D002688D
:104FD800936823F40053C16B0B439360436A13F047
:104FE800400F0AD00268536823F48013016C0B4306
:104FF8005360036CB3F5801F0BD0436A13F0800F26
:1050080006D00268536823F40023816C0B43536075
:1050180070470268536823F4C003416C0B43536024
:10502800EBE72DE9F84305460E4617469946DDF8A5
:1050380020802B68DC6936EA04040CBF01240024B4
:10504800BC423AD1B8F1FF3FF3D0FDF7C3FAA0EB69
:105058000900404534D8B8F1000F33D02B681A68DE
:1050680012F0040FE5D0B6F1400218BF0122802EDD
:10507800DFD0002ADDD0DA6912F0080F11D1DA6921
:1050880012F4006FD5D04FF400621A622846FFF779
:10509800A1FD2023C5F88430002385F8783003204B
:1050A8000CE008241C622846FFF794FDC5F88440EC
:1050B800002385F87830012000E00020BDE8F8835F
:1050C8000320FBE70320F9E710B582B0044600236C
:1050D800C0F88430FDF77EFA23681B6813F0080FC8
:1050E8000AD12023E367C4F8803000202066606678
:1050F80084F8780002B010BD6FF07E430093034639
:1051080000224FF400112046FFF78BFF0028E8D05B
:10511800226852E8003F23F0800342E8003100296A
:10512800F6D12023E367002384F878300320E1E7F1
:1051380068B310B50446C36F03B32423E36722683A
:10514800136823F001031360636AE3B92046FFF78D
:105158006BFD012811D02268536823F490435360F3
:105168002268936823F02A0393602268136843F047
:10517800010313602046FFF7A7FF10BD80F87830C1
:10518800FBF7F0FED9E72046FFF7E6FEDEE7012051
:105198007047000010B40B68CBB90368194A1A406D
:1051A8004B688C682343CC6823430C6923434C69C0
:1051B80023438C692343CC6923430C6A2343496AFC
:1051C8000B431A43026000205DF8044B70470368E4
:1051D80023F4F843CA690C6A22434C6A22431343F6
:1051E80003604368074A1A404B688C682343CC68BD
:1051F80023430C6923434C69234389690B431A43AE
:105208004260E0E70080FFFF10B43ABB826802F01A
:1052180070420B68013B4C6804F1FF3C43EA0C13F5
:105228008C6804F1FF3C43EA0C23CC6804F1FF3C92
:1052380043EA0C330C6904F1FF3C43EA0C434C6924
:1052480004F1FF3C43EA0C538969013943EA0163DD
:105258001343836000205DF8044B70478368134A4A
:105268001A40CB6803F1FF3C4B69013B1B0543EA3D
:105278000C331A438260C26802F070420B68013B2B
:105288004C6804F1FF3C43EA0C138C6804F1FF3CC2
:1052980043EA0C230C6904F1FF3C43EA0C43896997
:1052A800013943EA01631343C360D3E7FF0F0FFFDC
:1052B800034AD2F8883043F47003C2F88830704744
:1052C80000ED00E010B582B01B4B1A6C42F0805222
:1052D8001A641B6C03F080530193019B174A1368EF
:1052E80043F480331360FDF775F90446134B5B688C
:1052F80013F4803F08D1FDF76DF9001BB0F57A7FF4
:10530800F4D9032002B010BD0C4A136843F40033EB
:105318001360FDF75FF90446084B5B6813F4003F20
:1053280007D1FDF757F9001BB0F57A7FF4D90320B0
:10533800E8E70020E6E700BF0038024000700040C0
:10534800E0B138B50D46044690F82C308BB10223F5
:1053580084F82C30214651F8040BFFF71BFF6268D4
:1053680029462068FFF750FF012384F82C300020DD
:1053780038BD80F82D30FBF739FEE8E7012070478B
:1053880090F83C20012A45D070B40346012280F8E9
:105398003C20022280F83D200268506894681E4E26
:1053A8001E4DAA4218BFB24203D120F470004D68C6
:1053B800284320F070000D68284350601A6816488A
:1053C800B2F1804F18BF824217D0A0F57C408242CC
:1053D80013D000F5806082420FD000F580608242D1
:1053E8000BD000F57840824207D000F57050824219
:1053F80003D0A0F59430824204D124F08004896857
:1054080021439160012283F83D20002083F83C006D
:1054180070BC704702207047000001400004014042
:10542800F0B583B00446066816F001060DD0A74B08
:105438009A6822F400029A609A68416B0A439A605B
:10544800436B002B00F039810026256815F40025F0
:1054580011D09E4AD2F88C3023F44013E16B0B43F1
:10546800C2F88C30E36BB3F5801F00F02881002B65
:1054780000F027810025236813F4801F0FD0934A7A
:10548800D2F88C3023F44003216C0B43C2F88C30E3
:10549800236CB3F5800F00F0168103B9012523684A
:1054A80013F0807F00D0012613F0200F40F0108108
:1054B800236813F0100F0CD0844BD3F88C2022F003
:1054C8008072C3F88C20D3F88C20A16B0A43C3F8F0
:1054D8008C20236813F4804F08D07C4AD2F890308F
:1054E80023F44033616E0B43C2F89030236813F401
:1054F800004F08D0754AD2F8903023F44023A16EAB
:105508000B43C2F89030236813F4803F08D06F4AE9
:10551800D2F8903023F44013E16E0B43C2F8903078
:10552800236813F4003F08D0684AD2F8903023F477
:105538004003216F0B43C2F89030236813F0400FEB
:1055480008D0624AD2F8903023F00303616C0B4311
:10555800C2F89030236813F0800F08D05B4AD2F865
:10556800903023F00C03A16C0B43C2F890302368F1
:1055780013F4807F08D0554AD2F8903023F03003D6
:10558800E16C0B43C2F89030236813F4007F08D015
:105598004E4AD2F8903023F0C003216D0B43C2F875
:1055A8009030236813F4806F08D0484AD2F89030BE
:1055B80023F44073616D0B43C2F89030236813F4F1
:1055C800006F08D0414AD2F8903023F44063A16DAF
:1055D8000B43C2F89030236813F4805F08D03B4A2D
:1055E800D2F8903023F44053E16D0B43C2F8903069
:1055F800236813F4005F08D0344AD2F8903023F4BB
:105608004043216E0B43C2F89030236813F4800F97
:1056180008D02E4AD2F8903023F08063A16F0B4354
:10562800C2F89030236813F4001F0DD0274AD2F82F
:10563800903023F00063E16F0B43C2F89030E36FC2
:10564800B3F1006F00F0AA80236813F0080F00D0B0
:10565800012513F4802F08D01C4AD2F8903023F08B
:105668004073616F0B43C2F89030236813F4000F46
:1056780009D0164AD2F8903023F08053D4F880101D
:105688000B43C2F8903026B9236813F0007F00F06E
:1056980005810E4A136823F080631360FCF79AFFB4
:1056A80006460A4B1B6813F0006F79D0FCF792FF8F
:1056B800801B6428F5D90320F3E00126C5E60126FE
:1056C800D5E60125D7E60126E7E600BF0038024007
:1056D8007F4B1A6C42F080521A641B6C03F08053A3
:1056E8000193019B7B4A136843F480731360FCF7B2
:1056F80071FF0746774B1B6813F4807F06D1FCF7D0
:1057080069FFC01B6428F5D90320CAE0704B1B6FE2
:1057180013F4407315D0226B02F440729A4210D0F1
:105728006B4B1A6F22F44072196F41F4803119677C
:10573800196F21F4803119671A671B6F13F0010F75
:1057480012D1236B03F44072B2F5407F1DD0604A3A
:10575800936823F4F81393605D490B6F226BC2F3CF
:105768000B0213430B67A3E6FCF734FF0746584BBD
:105778001B6F13F0020FE4D1FCF72CFFC01B41F2A2
:1057880088339842F3D903208BE05148826822F489
:10579800F812514919400A438260DDE7012553E7B1
:1057A800236813F0010F13D0636B8BB9484AD2F802
:1057B8008430D2F88410606803F4403343EA8013DD
:1057C80001F070610B43A16843EA0173C2F88430A9
:1057D800236813F4002F03D0E26BB2F5801F06D0C4
:1057E80013F4801F1ED0236CB3F5800F1AD1384AEA
:1057F800D2F88430D2F88410606803F4403343EA66
:105808008013E06843EA006301F0E0410B43C2F80B
:105818008430D2F88C3023F01F03616A01390B43BE
:10582800C2F88C30236813F0807F11D0284AD2F850
:105838008400D2F88410666823691B0443EA86133F
:1058480000F07060034301F0E0410B43C2F884307C
:10585800236813F0007F0DD0626823691B0443EAB4
:105868008213E26843EA0263A26843EA0273184AB1
:10587800C2F88430164A136843F080631360FCF75B
:10588800A9FE0646124B1B6813F0006F06D1FCF701
:10589800A1FE801B6428F5D9032002E0012D02D067
:1058A800002003B0F0BD0A4A136823F08053136048
:1058B800FCF790FE0546064B1B6813F0005F0DD001
:1058C800FCF788FE401B6428F5D90320E9E700BFF0
:1058D8000038024000700040FFFCFF0F236813F4FB
:1058E800002F01D0E26B22B113F4801F1DD0236C6E
:1058F800DBB9354AD2F88830D2F88810606903F4E9
:10590800403343EA8013A06943EA006301F0E041B1
:105918000B43C2F88830D2F88C3023F4F853A16ACC
:10592800013943EA0123C2F88C30236813F4001FBD
:1059380003D0E36FB3F1006F31D0236813F0080F81
:1059480019D0214AD2F88810D2F88830606903F457
:10595800403343EA801301F070610B43E16943EA85
:105968000173C2F88830D2F88C3023F44033E16AEE
:105978000B43C2F88C30144A136843F08053136009
:10598800FCF728FE0446104B1B6813F0005F19D182
:10599800FCF720FE001B6428F5D9032081E70A4A9A
:1059A800D2F88800D2F888106569236A1B0443EA94
:1059B800851300F07060034301F0E0410B43C2F827
:1059C8008830BAE700206CE700380240564B036085
:1059D800564BD3F88420C2F388124260D3F884204F
:1059E800C2F301420261D3F88420C2F30362C260A9
:1059F800D3F88420C2F302728260D3F88820C2F3FD
:105A080088124261D3F88820C2F301420262D3F8B7
:105A18008820C2F303628261D3F88820C2F302723D
:105A2800C261D3F88C2002F01F024262D3F88C20A6
:105A3800C2F304228262D3F88C20C2F30142C2620C
:105A4800D3F88C2002F44012C263D3F88C2002F4FD
:105A5800400202649A6802F400024263D3F890207C
:105A680002F440324266D3F8902002F44022826663
:105A7800D3F8902002F44012C266D3F8902002F4C2
:105A880040020267D3F8902002F003024264D3F880
:105A9800902002F00C028264D3F8902002F03002C9
:105AA800C264D3F8902002F0C0020265D3F89020B7
:105AB80002F440724265D3F8902002F44062826595
:105AC800D3F8902002F44052C265D3F8902002F433
