:020000040800F2
:1000000000000520A1680008B9110008BB11000814
:10001000BD110008BF110008C11100080000000058
:10002000000000000000000000000000C3110008F4
:10003000C511000800000000C7110008C911000820
:10004000F1680008F1680008F1680008F16800082C
:10005000F1680008F1680008F1680008F16800081C
:10006000F1680008F1680008F1680008F16800080C
:10007000F1680008F1680008F1680008F1680008FC
:10008000F1680008F1680008F1680008F1680008EC
:10009000F1680008F1680008F1680008F1680008DC
:1000A000F1680008F1680008F1680008F1680008CC
:1000B000F1680008F1680008F1680008F1680008BC
:1000C000F1680008F1680008F1680008F1680008AC
:1000D000F1680008F1680008F1680008F16800089C
:1000E000F1680008F1680008F1680008F16800088C
:1000F000F1680008F1680008F1680008F16800087C
:10010000F1680008F1680008F1680008F16800086B
:10011000F1680008F1680008F1680008F16800085B
:10012000F1680008F1680008F1680008F16800084B
:10013000D1110008F1680008F1680008F1680008B2
:10014000F1680008F1680008F1680008F16800082B
:10015000F1680008E1110008F1680008F168000882
:10016000F1680008F1680008F1680008F16800080B
:10017000F1680008F1680008F1680008F1680008FB
:10018000F1680008F1680008F1680008F1680008EB
:10019000F1680008F1680008F1680008F1680008DB
:1001A000F1680008F1680008F1110008F168000822
:1001B000F1680008F1680008F1680008F1680008BB
:0801C000F1680008F168000875
:1001C80010B5054C237833B9044B13B10448AFF389
:1001D80000800123237010BD4C00002000000000A7
:1001E800F468000808B5034B1BB103490348AFF393
:1001F800008008BD0000000050000020F4680008DE
:1002080053B94AB9002908BF00281CBF4FF0FF3175
:100218004FF0FF3000F06AB9ADF1080C6DE904CE7B
:1002280000F006F8DDF804E0DDE9022304B07047C9
:100238002DE9F047089D0C46002B4ED194468C457D
:100248008646B2FA82F262D94AB1C2F120039140DD
:1002580020FA03F30CFA02FC194300FA02FE4FEAF3
:100268001C471FFA8CF6B1FBF7F44FEA1E4307FB55
:10027800141143EA014304FB06F199420AD91CEB25
:10028800030304F1FF3080F01281994240F20F819C
:10029800023C6344591A1FFA8EF3B1FBF7F007FBCF
:1002A800101143EA014300FB06F69E420AD91CEBF3
:1002B800030300F1FF3180F0FC809E4240F2F98098
:1002C800634402389B1B40EA044000211DB1D3401F
:1002D8000022C5E90032BDE8F0878B4205D90DB18F
:1002E800C5E9000100210846F5E7B3FA83F10029C2
:1002F80046D1A34202D39042C0F0F080861A64EB44
:1003080003030120002DE6D0C5E90063E3E7002AD6
:1003180040F09080A1EB0C044FEA1C481FFA8CF7C0
:100328000121B4FBF8F64FEA1E4308FB164443EAE2
:10033800044307FB06F0984208D91CEB030306F1B7
:10034800FF3402D2984200F2CD8026461C1A1FFACA
:100358008EF3B4FBF8F008FB104443EA044300FBB7
:1003680007F79F4208D91CEB030300F1FF3402D2C0
:100378009F4200F2B0802046DB1B40EA0640A5E71A
:10038800C1F120068B4022FA06F71F4320FA06FC2B
:1003980004FA01F343EA0C03F44000FA01F8380CBC
:1003A8004FEA1349B4FBF0FE1FFA87FC00FB1E441A
:1003B80049EA04440EFB0CF9A14502FA01F20AD9F4
:1003C8003C190EF1FF3A80F08480A14540F281800B
:1003D800AEF1020E3C44A4EB09041FFA83F9B4FB06
:1003E800F0F300FB134449EA044403FB0CFCA44566
:1003F80007D93C1903F1FF3067D2A44565D9023B00
:100408003C4443EA0E40A0FB0293A4EB0C049C423C
:10041800CE469C4651D34ED055B1B8EB0E0364EB93
:100428000C0404FA06F6CB401E43CC40C5E9006430
:10043800002150E7C2F1200320FA03F10CFA02FC74
:1004480024FA03F394400C434FEA1C4800FA02FED6
:100458001FFA8CF7B3FBF8F008FB1031230C43EAC2
:10046800014300FB07F1994208D91CEB030300F193
:10047800FF362CD299422AD9023863445B1AA4B2B7
:10048800B3FBF8F108FB113344EA034401FB07F31B
:10049800A34208D91CEB040401F1FF3613D2A3428E
:1004A80011D902396444E41A41EA004139E70446A3
:1004B800F0E6084606E7C845AED2B9EB020E63EB94
:1004C800070C0138A8E73146EDE7034699E73046BF
:1004D800D4E7D6467FE7634402384DE7064623460D
:1004E80008460FE7023E634430E700BF704700BF8D
:1004F80002440346934200D1704703F8011BF9E711
:1005080070B50D4D0D4C641BA4100026A64209D1F0
:100518000B4D0C4C06F0EAF9641BA4100026A64209
:1005280005D170BD55F8043B98470136EEE755F8FC
:10053800043B98470136F2E700840008008400086D
:10054800008400080884000870477047024B13B104
:10055800024800F005B87047000000007505000863
:10056800002301461A46184600F014B838B5074D5E
:10057800074C641BA4101CB9BDE8384006F0BCB990
:10058800013C55F824309847F5E700BF0884000877
:100598000C8400082DE9F047DFF874A00646DAF865
:1005A800000098460F469146FFF7CEFF164B1C6891
:1005B8000CB9164C1C606568DAF800001F2D05DDC3
:1005C800FFF7C3FF4FF0FF30BDE8F0879EB104EBA3
:1005D80085010122C1F88890D4F88831AA401343D4
:1005E800C4F88831022EC1F8088102BFD4F88C31D2
:1005F8001343C4F88C316B1C0235636044F82570D2
:10060800FFF7A3FF0020DFE76C0000207000002048
:10061800000000208AB02E4B1A6B42F010021A63B9
:100628001A6B02F010020092009A1A6B42F0020252
:100638001A631A6B02F002020192019A1A6B42F0D5
:1006480001021A631A6B02F001020292029A1A6BF3
:1006580042F040021A631A6B02F040020392039AB6
:100668001A6B42F008021A631A6B02F0080204922D
:10067800049A1A6B42F480721A631A6B02F480723D
:100688000592059A1A6B42F480621A631A6B02F497
:1006980080620692069A1A6B42F020021A631A6B5D
:1006A80002F020020792079A1A6B42F080021A633E
:1006B8001A6B02F080020892089A1A6B42F0040240
:1006C8001A631B6B03F004030993099B0AB0704774
:1006D80000380240002304E031F913C020F813C0A9
:1006E80001339A42F8D8704700B583B00E4B1A6BA5
:1006F80042F480021A631B6B03F480030193019B8D
:10070800002211463C2002F05FFC3C2002F06CFC09
:1007180000221146452002F057FC452002F064FCF7
:1007280003B05DF804FB00BF0038024010B582B08A
:1007380084460C461A4B93E8030002AB03E9030016
:10074800002300E00433A34223D23CF91300BDF98F
:100758000010884201DDADF80000591C3CF9110079
:10076800BDF90210884201DDADF80200981C3CF981
:100778001000BDF904E0704501DDADF80400D81C97
:100788003CF91000BDF906E07045DBDDADF8060068
:10079800D8E76B4603CB1060516002B010BD00BFB4
:1007A8000C690008014B01221A70704700020020F2
:1007B800014B02221A70704701020020014B0122EE
:1007C8001A7070470102002072B6FEE708B50C489F
:1007D8000C4B0360002343608360C3608362C36281
:1007E8000363436302F0AAFE28B90121044803F019
:1007F8002FF810B908BDFFF7E7FFFFF7E5FF00BFC7
:100808005C16002000B0024000B589B000230193B7
:100818000293039304930593069307931048114A90
:100828000260436083600422C2601022026140219A
:10083800416180218161C3610362436283620192E5
:1008480002920392049205920692079201A905F07A
:10085800F3FA10B909B05DF804FBFFF7B5FF00BF64
:10086800E4120020400100A010B59AB034242246BA
:1008780000210DEB0400FFF73BFE224600216846ED
:10088800FFF736FE3248334B036000234360836032
:10089800C360036107224261032282610E22C261A2
:1008A8000522026240F28E22426240F2E512826222
:1008B8004FF42572C26240F2E712026380F83430C6
:1008C80080F8353080F8363003F0AEFE002838D195
:1008D80000220D920E920F92109211921292139280
:1008E8004FF4806314930523159316921792189268
:1008F8008DF864208DF865208DF866200DA91448C0
:1009080003F00CFFF8B900230093019302930393BB
:100918000493059306934FF4806207920522089288
:1009280009930A930B938DF830308DF831308DF898
:10093800323001226946064803F0F0FE28B91AB0A1
:1009480010BDFFF741FFFFF73FFFFFF73DFF00BF77
:10095800B41500200068014008B52348234B036004
:10096800002303634360402242638363C36383605D
:100978000361436183611E4AC261C360436283624B
:10098800C36208220264012242648364C36403656B
:1009980043658365C265036604F086FA00BB1548A3
:1009A800154B036000230363032242604022426325
:1009B8008363C3630122826003618361C36043620E
:1009C8008362C3620821016442648364C36403656B
:1009D80043658365C265036604F066FA10B908BD0D
:1009E800FFF7F2FEFFF7F0FE30150020045C01402F
:1009F80000EE0200AC140020245C014000B589B070
:100A0800002304930593069307930193029303939A
:100A18001348144A0260436083604FF6FF72C26055
:100A280003614361836104F071FD98B94FF4805309
:100A3800049304A90A4804F0A7FD68B900230193A8
:100A48000293039301A9064805F050FA30B909B09A
:100A58005DF804FBFFF7B8FEFFF7B6FEFFF7B4FE3C
:100A6800A01300200000014008B50B480B4B0360A1
:100A78004FF4E133436000238360C36003610C22B9
:100A880042618361C3610362436205F0ABF800B958
:100A980008BDFFF799FE00BF1813002000100140A1
:100AA80010B594B03022002108A8FFF721FD0024DA
:100AB8000394049405940694079403F067FE214B6D
:100AC8001A6C42F080521A641B6C03F08053019335
:100AD800019B1D4B1A6842F440421A601B6803F4DC
:100AE80040430293029B0223089301220B92102297
:100AF8000C920E930F9408221092D2221192129304
:100B0800139308A803F04AFEA8B905F057F9A0B94D
:100B18000F23039302230493002305934FF4A05358
:100B280006934FF480530793062103A804F0A4F812
:100B380028B914B010BDFFF747FEFFF745FEFFF7D1
:100B480043FE00BF003802400070004000B5A3B06B
:100B58008422002101A8FFF7CBFC094B0193322323
:100B6800069302230893079301230B9301A805F02A
:100B78000DFA10B923B05DF804FBFFF725FE00BF9E
:100B88000800100000B585B002F0A8F9FFF788FF4B
:100B9800FFF7DCFFFFF73EFDFFF7A6FDFFF716FEA8
:100BA800FFF732FEFFF760FEFFF7D6FEFFF726FFDE
:100BB800FFF75AFF05F046FE32220021204805F0D3
:100BC80061FE0221009110234BF680324FF44070F1
:100BD80000F048FD4FF470721A491B4804F00CFBF2
:100BE8004FF4707219491A4804F08AFA194B002216
:100BF8001A7015E0134C02AA4FF407712046FFF74C
:100C080095FD4FF4077221461048FFF763FD114B1D
:100C180000221A70104B1B7813B10F4B00221A7068
:100C28000C4B1B78002BF5D00A4B1B78DBB2012B41
:100C3800E0D04FF4077209490948FFF74BFDE6E792
:100C480014690008740A00206417002004020020B8
:100C5800E81700200102002000020020AC0E00204E
:100C68003C060020F0B587B000230193029303935C
:100C780004930593254B1B680BB107B0F0BD234BBC
:100C880001221A60224B9A6B42F001029A639B6B15
:100C980003F001030093009B4FF683730193022630
:100CA8000296032504950C24059401A9194802F01D
:100CB80031FE48F2331301930296002703970495F7
:100CC800059401A9144802F025FE4CF20373019320
:100CD800029603970495059401A9104802F01AFE9C
:100CE8004FF63F030193029603970495059401A9D3
:100CF8000B4802F00FFE2C230193029603970495EC
:100D0800059401A9074802F005FEB6E7A0160020E1
:100D1800003802400010024000180240000C024057
:100D280000140240001C024082B00A4B1A6C42F0C8
:100D380080521A641A6C02F080520092009A5A6C1F
:100D480042F480425A645B6C03F480430193019B34
:100D580002B070470038024002680E4B9A4200D039
:100D6800704700B583B0A3F5F0431A6B42F4000254
:100D78001A631B6B03F400030193019B00221146C5
:100D88005A2002F021F95A2002F02EF903B05DF83A
:100D980004FB00BF00B00240F0B58FB000230993F8
:100DA8000A930B930C930D930268584B9A4201D007
:100DB8000FB0F0BD03F550435A6C42F080625A649C
:100DC8005A6C02F080620192019A1A6B42F0020298
:100DD8001A631A6B02F002020292029A1A6B42F02C
:100DE80040021A631A6B02F040020392039A1A6BCC
:100DF80042F001021A631A6B02F001020492049A8B
:100E08001A6B42F480621A631A6B02F480620592CC
:100E1800059A1A6B42F008021A631A6B02F008026C
:100E28000692069A1A6B42F480721A631A6B02F4DD
:100E380080720792079A1A6B42F080021A631B6B42
:100E480003F080030893089B4FF44073099302252D
:100E58000A950E260D9609A92D4802F05BFD4FF460
:100E6800046309930A9500240B940C940D96294F5A
:100E780009A9384602F04EFD4FF4C85309930A9564
:100E88000B940C940D9609A9234802F043FD902376
:100E980009930A950B940C940D9609A91F4802F022
:100EA80039FD4FF4A05309930A950B940C94092328
:100EB8000D9309A9384602F02DFD082309930A95D8
:100EC8000B940C940D9609A9154802F023FD44F2E1
:100ED800036309930A950B940C940D9609A911487C
:100EE80002F018FD4FF4224309930A950B940C94D1
:100EF8000D9609A90C4802F00DFD224621465820FE
:100F080002F062F8582002F06FF851E700680140DB
:100F1800000402400018024000000240002802407D
:100F2800000C024000200240001C02400268094BED
:100F38009A4200D0704782B003F59C335A6C42F055
:100F480001025A645B6C03F001030193019B02B038
:100F5800704700BF0000014010B5A8B0044600214A
:100F680023912491259126912791842202A8FFF7A5
:100F7800BFFA2268174B9A4201D028B010BD40230F
:100F8800029302A805F002F808BB134B5A6C42F012
:100F980010025A645A6C02F010020092009A1A6BFE
:100FA80042F002021A631B6B03F002030193019BD8
:100FB800C0232393022324930023259303232693FA
:100FC8000723279323A9054802F0A4FCD5E7FFF7D8
:100FD800FBFBDAE700100140003802400004024041
:100FE80008B5FFF73FFE08BD30B589B00446026872
:100FF800444B9A4205D02268434B9A4242D009B0EA
:1010080030BD424B1B684BB9414A516C41F4000159
:101018005164526C02F400020192019A01333B4A76
:101028001360F02303930223049300250595069586
:101038000A23079303A9374802F06CFC3648374B5C
:1010480003604FF0C063436040238360C5604FF482
:10105800806303614FF4006343614FF4005383617D
:101068004FF48073C3614FF400330362456202F0AA
:101078005BF820B9284B23679C63E366BBE7FFF75F
:10108800A3FBF7E7214B1B684BB9214A516C41F48C
:1010980000015164526C02F400020292029A013378
:1010A8001A4A13600123039302230493002505952C
:1010B80006950A23079303A9194802F02BFC19483F
:1010C800194B03604FF0C06343608560C5604FF4FF
:1010D800806303614FF4006343614FF400538361FD
:1010E8004FF48073C3614FF400330362456202F02A
:1010F8001BF820B90B4B23679C63E3667FE7FFF778
:1011080063FBF7E7045C0140245C01409C16002067
:1011180000380240002002404C1400207064024055
:1011280000000240EC130020A064024010B5044601
:101138000268194B9A4204D02268184B9A4215D07B
:1011480010BD174A1368013B136023B9154A536C45
:1011580023F400035364F021134802F0DDFC206FF0
:1011680002F048F8E06E02F045F8E5E70C4A13682B
:10117800013B136023B90B4A536C23F400035364F7
:1011880001210A4802F0C8FC206F02F033F8E06E33
:1011980002F030F8D4E700BF045C0140245C014051
:1011A8009C16002000380240002002400000024047
:1011B800FEE7FEE7FEE7FEE7FEE770477047704789
:1011C80008B501F097FE08BD08B5024802F07EF8A0
:1011D80008BD00BF4C14002008B5024802F076F89C
:1011E80008BD00BFEC13002008B5024802F091FAD0
:1011F80008BD00BF5C16002008B50548054B036014
:10120800054A536823F48033536003F057FF08BD41
:10121800E8170020045C0140005C014008B505485F
:10122800054B0360054A536A23F48033536203F085
:1012380045FF08BD64170020245C0140005C0140A4
:10124800704708B5FFF7FCFF08BD08B5FFF7AAFA15
:1012580008BD70472DE9F0478AB082464F4C636C51
:1012680043F400036364636C03F400030093009B7E
:10127800236B43F480732363236B03F4807301931C
:10128800019B236B43F480732363236B03F4807304
:101298000293029B236B43F480732363236B03F451
:1012A80080730393039B802305934FF00209CDF8C5
:1012B80018904FF00008CDF81C80032708970A26DD
:1012C8000996374D05A9284602F024FB20230593EB
:1012D800CDF81890CDF81C800897099605A92846DE
:1012E80002F018FB40230593CDF81890CDF81C8028
:1012F8000897099605A9284602F00CFB10230593C8
:10130800CDF81890CDF81C800897099605A92846AD
:1013180002F000FB236B43F480032363236B03F485
:1013280080030493049BDAF800201E4B9A420AD0EB
:1013380000220E213C2001F047FE3C2001F054FE23
:101348000AB0BDE8F087184C4FF0C06363604023D3
:10135800A360C4F80C804FF4806222614FF40062ED
:1013680062614FF40052A2614FF48072E2614FF45F
:101378000032226204226262A762C4F82C80C4F898
:1013880030800A4B2360CAF86C40C4F838A0204665
:1013980001F030FF204601F0C7FEC9E700380240DF
:1013A80000200240045C01400417002070640240E1
:1013B80010B5A2B00C4601A805F0BEF842F61132ED
:1013C80045F222639C4218BF944203D04AF6444334
:1013D8009C4211D14FF4801301934FF48003119371
:1013E80040F2AD1302930223049313230A9301A836
:1013F80004F0CCFD22B010BD4FF4801301934FF4DC
:10140800800311934FF4AC730293072304930123D1
:101418000A9301A804F0BAFDECE708B5FFF7C8F98C
:1014280008BD08B5FFF7CAF908BD704738B50B48BD
:1014380003F0A9FF05460A4803F0A5FF0446122D4C
:1014480018BF022D04D0222C18BF022C03D038BD9F
:10145800FFF7FFFEF7E7FFF7E8FFF8E7E8170020D8
:1014680064170020F0B58BB005463B4C636C43F421
:1014780000036364636C03F400030193019B236B13
:1014880043F040032363236B03F040030293029B62
:101498004FF480630593022606960027079708965F
:1014A8000A23099305A92D4802F034FA236B43F067
:1014B80080032363236B03F080030393039B4FF4A0
:1014C8000043059306970797089605A9244802F054
:1014D80021FA236B43F480032363236B03F4800313
:1014E8000493049B2A681F4B9A4211D000220F21B3
:1014F800462001F069FD462001F076FD00220F210B
:10150800282001F061FD282001F06EFD0BB0F0BD30
:10151800154C6760A760E7604FF4806222614FF462
:10152800006262614FF40052A2614FF48072E2617E
:101538004FF40032226267620322A262E7622763E5
:101548000A4B23602C67A563204601F053FE204612
:1015580001F0EAFDCAE700BF003802400018024067
:10156800001C0240245C0140A4160020B86402401C
:101578002DE9F04F83B0364D364B2B60DFF8E08015
:10158800D8F8043023F48033C8F804300192EA61B3
:10159800686000266E612E634FF0800BC5F834B08A
:1015A800AE630127EF63AE604FF400532B61AF6168
:1015B8004FF0400AC5F840A04FF02009C5F8449004
:1015C8004FF48030A864EE644FF4802028656E657F
:1015D800AE650420E86500912966284603F064FC9E
:1015E8001D4C1E4B2360D8F8243023F48033C8F8F0
:1015F8002430019BE3610323636066612663C4F8BA
:1016080034B0A663E763A7602661A761C4F840A069
:10161800C4F844904FF48033A364E6644FF4802305
:1016280023656665A6650423E365009A226620465D
:1016380003F03AFC2A68136843F480331360226885
:10164800136843F48033136003B0BDE8F08F00BF24
:10165800E8170020045C014064170020245C014066
:10166800005C0140F8B505460F461446FFF7D6FD65
:10167800FFF7C2FD1F4E002221463046FFF798FEB5
:101688001D4B3360304603F07EFEB8B11B481C4B3F
:10169800036003F078FEB0B1B5F5007F18D00521DE
:1016A80022460020FFF764FF164B9B6834209847BA
:1016B80048F6941398420DD00120F8BD0021304619
:1016C800FFF7D0FEE2E700210C48FFF7C3FDE3E790
:1016D8000A21E5E70B4EF36A342098470A4B1E604F
:1016E80036682346642245EA07013420B0470020C3
:1016F800E3E700BF64170020245C0140E8170020DE
:10170800045C0140080000206C1800202DE9F0411D
:1017180082B005460E46174698461A4B4FF440329B
:101728005A60194B1B68194C342202FB034CDCF835
:101738004830022B0DD0134B00229A601148089BA9
:10174800C360134B036001F0F9FE30B102B0BDE88D
:10175800F0810C4B02229A60F0E72946094802F012
:1017680077F80028F2D1CDF800803B463246099937
:10177800044801F011FF0028E8D10A21014801F0CE
:1017880027FFE3E7101900200C190020501900204A
:1017980000B00240034B1A68034B342101FB0233AB
:1017A800186E70470C19002050190020034B1A6856
:1017B800034B342101FB0233586E70470C1900208B
:1017C8005019002070B58EB004460E4600250195CC
:1017D800FFF7E0FF02900395FFF7E8FF04900595F7
:1017E8000A96FF23069307958DF834508DF83550E7
:1017F8008DF836504FF4C063089307230993FFF719
:10180800C9FF0B90FFF7D2FF0C90224601A90A48A6
:1018180002F084FF094A04EB440302EB83034FF010
:10182800FF3159600649996004EB44044FF07F4347
:1018380042F824300EB070BD50190020F418002072
:1018480044000020014B1860704700BF0C190020AD
:10185800034B1B6803EB4303024A42F8230070471B
:101868000C190020F4180020044B1B6803EB4303F9
:10187800034A02EB83035860704700BF0C1900202D
:10188800F4180020044B1B6803EB4303034A02EBE4
:1018980083039860704700BF0C190020F4180020DB
:1018A800F0B583B005460B4B1E680B4B342202FB88
:1018B8000633DF6DFFF76EFF0446FFF777FF034639
:1018C800019500220092224639463046FFF71EFF56
:1018D80003B0F0BD0C19002050190020F8B50446DB
:1018E8000D461646104B1A68104B342101FB023383
:1018F8009B6C022B0BD00D4B342101FB0233DF6DA7
:10190800FFF748FF00FB054447F82460F8BD074B84
:1019180001FB0233DF6DFFF73DFF00FB0540B6B268
:1019280027F81060F2E700BF0C19002050190020BA
:101938002DE9F04F83B080468B460092344B1B68EC
:1019480003EB4303334A02EB83039B68DA88019273
:101958009D88E91D4FEAE1094FEAC907FFB2EBB2DA
:10196800FF1AFFB24FF0000A5346CA46994636E0BE
:10197800009AD65C002414E0009AD35C467846EAC4
:101988000326F7E7224B1B6803EB4303214A02EBCC
:10199800830308EB04005A68594680B2FFF79EFF9C
:1019A8000134A54215D92B1B3B44013B012202FA05
:1019B80003F33342E6D0164B1B6803EB430308EBF3
:1019C8000400144A52F82320594680B2FFF786FFD4
:1019D800E6E70BF1010B1FFA8BFB09F10109019BEB
:1019E8004B4512D909FB0AF3009AD018BAF1010F36
:1019F800BED0BAF1020FBFD0009AD35C4678360247
:101A080046EA034683781E43B4E703B0BDE8F08F87
:101A18000C190020F418002038B50B4B1B6803EB99
:101A280043030A4C04EB83039C682568A2F1200356
:101A3800E28802FB03F3A2880732D21002FB0352AA
:101A4800FFF776FF38BD00BF0C190020F4180020FE
:101A58002DE9F04104460E4615469846944600275F
:101A680000E001371CF8012B002AFAD1FFF792FE9B
:101A78002A4B1B6803EB4303294A02EB83039B6849
:101A88009A88B0FBF2F0B8F1010F07D0B8F1020F55
:101A98000CD023B2002B3EDD002721E0C01B00FB49
:101AA80002F3C3F34F0323449CB2F2E7C31B13FBB7
:101AB80002F39BB21B1B9CB2EBE742463146204621
:101AC800FFF7AAFF154B1B6803EB4303144A02EB0D
:101AD80083039B689B8823449CB201350137BFB2BE
:101AE80095F80080FFF756FE0C4B1B6803EB430389
:101AF8000B4A02EB83039B689A8802FB17039BB28D
:101B0800B8F1000118BF0121934238BF0021002914
:101B1800D3D1BDE8F0810124BEE700BF0C19002035
:101B2800F418002008B5094B1A68936943F00103BB
:101B3800936101224FF48051054802F093F8012285
:101B48000821044802F08EF808BD00BF5019002093
:101B58000020024000280240F0B58FB04A4B5A6C72
:101B680042F080625A645A6C02F080620092009AD5
:101B78001A6B42F400021A631A6B02F40002019213
:101B8800019A1A6B42F010021A631A6B02F01002E3
:101B98000292029A1A6B42F040021A631A6B02F020
:101BA80040020392039A1A6B42F480721A631A6B0A
:101BB80002F480720492049A1A6B42F400721A6357
:101BC8001A6B02F400720592059A1A6B42F480624D
:101BD8001A631A6B02F480620692069A1A6B42F430
:101BE80080721A631A6B02F480720792079A1A6B52
:101BF80042F480621A631B6B03F480630893089BAA
:101C08001023099302240A9400230B930C940E25A5
:101C18000D9509A91D4801F07DFE4FF480570997DD
:101C28000A9409230D9309A9194801F073FE4FF48A
:101C3800464309930A940D95164E09A9304601F0BA
:101C480069FE4EF6FF7309930A940D9509A9124887
:101C580001F060FEF72309930A940D950F4C09A92A
:101C6800204601F057FE099701250A9509A9304633
:101C780001F050FE082309930A9509A9204601F0AE
:101C880049FE0FB0F0BD00BF00380240001002400E
:101C980000180240002002400024024000280240B0
:101CA80008B5064808230360C02343610523C361C0
:101CB8004FF48033C36204F069F908BD701800203E
:101CC80010B5254C282363610923A3613523E361FB
:101CD8000B23236240F21B13A36240F215236362B5
:101CE80040F21D13236340F23523E36200212046AE
:101CF800FFF7D6FF4FF4F07323664FF488736366DB
:101D0800002384F8343084F8353084F83630636042
:101D1800A360E3602361114B2360204602F032FD8B
:101D2800A0B10D4802F080FC01224FF480510C480C
:101D380001F098FF012208210A4801F093FF00F002
:101D48001FF90948FFF79EFD002010BD002120461D
:101D5800FFF702FFE5E700BF5019002000680140C7
:101D68000020024000280240440000202DE9F043F2
:101D780083B081464FF00008CDF80480204C01263E
:101D8800266010276760A660C4F80C801D4D4FF6CA
:101D9800FF722146284604F06FF8304601F0BCF87F
:101DA800022323606760A660C4F80C804FF6FF72B8
:101DB8002146284604F060F803232360676008235F
:101DC800A360C4F80C804FF6FF722146284604F041
:101DD80053F84FF408730193042323606760A660E7
:101DE800019BE3604FF6FF722146284604F044F851
:101DF8004946284604F061F803B0BDE8F08300BF07
:101E0800581A0020841A002070B58EB00646534B2D
:101E18009A6B42F001029A639A6B02F001020192F6
:101E2800019A1A6B42F480021A631A6B02F4800258
:101E38000292029A1A6B42F004021A631A6B02F0B9
:101E480004020392039A1A6B42F008021A631A6B8F
:101E580002F008020492049A1A6B42F010021A6304
:101E68001A6B02F010020592059A1A6B42F02002D2
:101E78001A631A6B02F020020692069A1A6B42F055
:101E880040021A631A6B02F040020792079A1A6B13
:101E980042F080021A631B6B03F080030893089BCF
:101EA80002230A9301220B920C930C230D9308230F
:101EB800099309A92A4801F02DFD4CF203730993EF
:101EC80009A9284801F026FD4FF68373099309A94B
:101ED800254801F01FFD4FF63F03099309A9234840
:101EE80001F018FD48F23313099309A9204801F0BD
:101EF80011FD2823099309A91E4801F00BFD1E4C6A
:101F0800002565608023A3604FF40073E3604FF4FD
:101F1800806323614FF4805363614FF48043A3616E
:101F2800E5614FF40033236265620323A362E5622F
:101F38002563124B23603463A663204601F05AF9E7
:101F4800204601F0F1F82A460F21382001F03CF82C
:101F5800382001F049F80EB070BD00BF00380240CB
:101F680000080240000C0240001002400014024029
:101F780000180240001C0240F819002010640240BA
:101F880038B51B4C1B4B23601B4D02232B600721CC
:101F980069600422AA60E9602B616B61AB61002172
:101FA8006160A160E26010232361402363614FF404
:101FB8008073A361E1614FF4006323624FF480539F
:101FC8006362A1622046FFF71FFF2946204603F0FF
:101FD80033FF48B1094B01221A7040F20360FFF742
:101FE800C5FE064B187838BD044B00221A70F4E77A
:101FF800841A0020400100A0681A00200400002074
:1020080070B58AB0444B834243D0444C236B43F0B1
:1020180002032363236B03F002030393039B4FF430
:1020280080730593122306930025079502230893CE
:10203800042309933A4E05A9304601F06BFC4FF48E
:102048000073059305A9304601F064FC236C43F442
:1020580000132364236C03F400130493049B236A82
:1020680043F400132362236A23F4001323622A46ED
:102078000F211F2000F0A8FF1F2000F0B5FF2A46FF
:102088000F21202000F0A0FF202000F0ADFF0AB0B3
:1020980070BD224C236B43F080032363236B03F052
:1020A80080030193019B8023059312230693002547
:1020B800079502230893042309931A4E05A930466D
:1020C80001F028FC4FF48073059305A9304601F010
:1020D80021FC236C43F400032364236C03F4000302
:1020E8000293029B236A43F400032362236A23F4C6
:1020F800000323622A460F21482000F065FF48208C
:1021080000F072FF2A460F21492000F05DFF4920A8
:1021180000F06AFFBBE700BFB81A00200038024091
:1021280000040240001C024010B5044602F0A0F969
:10213800A0B90C4B9C4212D00B4B23600B4B636035
:102148000023A3600122E26023616361E3612362EB
:102158002046FFF755FF204601F05EFF10BD044BF7
:102168002360EBE7B81A0020005400403227914062
:10217800005C004010B5044601F0B3FF2046FFF7AD
:10218800D3FF10BD70B584B004460D464FF47A767F
:102198000296BDF824600196089E009601F0BAFFE9
:1021A800064610B9304604B070BD29462046FFF7F0
:1021B800E1FFF7E770B584B004460D464FF47A7630
:1021C8000296BDF824600196089E009602F078F801
:1021D800064610B9304604B070BD29462046FFF7C0
:1021E800C9FFF7E708B50248FFF79EFF08BD00BF23
:1021F800B81A00207047000000B585B0ADF80E2071
:1022080092B2130AADF80E3043EA0223ADF80E304D
:10221800022301930DF10E0200920A46014603487B
:10222800FFF7B0FF05B05DF804FB00BFB81A002047
:1022380000B585B00A460023ADF80E30022301939D
:102248000DF10E01009101460648FFF7B3FFBDF8F6
:102258000E30180240EA132080B2ADF80E0005B027
:102268005DF804FBB81A002008B500F055FE08BD5B
:1022780008B5FFF7C1FF002008BD000038B50346C8
:10228800134A106880B101290FD0DDB210224FF433
:1022980084612846FFF7ECFF0446102240F22241F1
:1022A8002846FFF7E5FF204438BDDDB24FF4007241
:1022B8004FF484612846FFF7DBFF04464FF40072B1
:1022C80040F222412846FFF7D3FF2044ECE700BF45
:1022D800101B002008B50021FFF7D0FF08BD08B586
:1022E8000021FFF7CBFF08BD38B505460121FFF7F0
:1022F800C5FF044601220221E8B2FFF7B9FF2044D6
:1023080038BD000070B51D4B1C680CB9204670BD67
:1023180005460E460121FFF7B1FF0446022EF5D00F
:10232800EDB24FF400724FF484612846FFF7A0FF26
:1023380004444FF4007240F222412846FFF798FF08
:10234800044400222D212846FFF792FF044400226E
:102358002E212846FFF78CFF044400220521284639
:10236800FFF786FF0444002211462846FFF780FF46
:102378000444024B00221A60C8E700BF101B00206B
:102388002DE9F04106460C46642925D8C1EB811792
:10239800464B83FB0723FF17C7EB6317FFB2444B7A
:1023A8001D6845B13E2F19D8002C3AD1012130467D
:1023B800FFF764FF05463F4B1B68002B73D0632C67
:1023C80051D8C4EB04142401384B83FB0423E417CD
:1023D800C4EB6314E4B247E06427E0E70021304629
:1023E800FFF74CFF0746F5B240F27F121C21284642
:1023F800FFF73EFF074440F27F121D212846FFF7F2
:1024080037FF074440F27F1226212846FFF730FFA6
:10241800074440F27F1227212846FFF729FFC519F4
:10242800C9E700213046FFF729FF8046F5B247F497
:10243800A0773A461C212846FFF71AFF80443A46FF
:102448001D212846FFF714FF80443A4626212846D6
:10245800FFF70EFF80443A4627212846FFF708FF7A
:1024680000EB0805A7E7EF24F6B244F4807422468F
:102478004FF480613046FFF7FBFE0544224640F2E8
:1024880001413046FFF7F4FE0544224640F204417C
:102498003046FFF7EDFE0544224640F2054130463E
:1024A800FFF7E6FE05442846BDE8F0811F85EB519D
:1024B800101B00200C1B00202DE9F84F8046914688
:1024C8009A46CFB201F47F45FFF78CFE5FFA88F495
:1024D80003224FF481712046FFF7CAFE0646002208
:1024E80040F617012046FFF7C3FE064400224FF4CA
:1024F80081712046FFF7BCFE00EB060B6C223921E8
:102508002046FFF7B5FE8344CDB3132201212046B0
:10251800FFF7AEFE00EB0B063220FFF7A5FE002FFB
:1025280000F0C880E74B01221A60022F53D0032F16
:1025380075D097422BD040F2033205212046FFF791
:1025480097FE0644012240F201612046FFF790FE03
:102558000644012240F202612046FFF789FE064444
:10256800002240F204612046FFF782FE0644002262
:1025780040F205612046FFF77BFE06449DE00322FA
:1025880001212046FFF774FE00EB0B06C4E740F676
:102598000C4205212046FFF76BFE0644002240F25C
:1025A80001612046FFF764FE0644002240F2026102
:1025B8002046FFF75DFE0644022240F204612046F1
:1025C800FFF756FE0644022240F205612046FFF757
:1025D8004FFE064471E040F2033205212046FFF722
:1025E80047FE0644012240F201612046FFF740FE03
:1025F8000644012240F202612046FFF739FE0644F4
:10260800002240F204612046FFF732FE0644002211
:1026180040F205612046FFF72BFE06444DE0B5F574
:10262800006F23D040F60F7205212046FFF720FEE9
:102638000644012240F201612046FFF719FE0644D4
:10264800012240F202612046FFF712FE06440222F0
:1026580040F204612046FFF70BFE0644022240F2D6
:1026680005612046FFF704FE064426E040F60F7297
:1026780005212046FFF7FCFD0644032240F20161D4
:102688002046FFF7F5FD0644032240F2026120468A
:10269800FFF7EEFD0644032240F204612046FFF7EF
:1026A800E7FD0644032240F205612046FFF7E0FDFE
:1026B800064402E0834B00221A60002D00F0E880F7
:1026C800814B01221A60B5F5407F77D032D8B5F535
:1026D800807F00F0B080B5F5007F40F0D7804FF4E0
:1026E800436204212046FFF7C3FD0644DB224FF472
:1026F8008A612046FFF7BCFD06444FF4C042022120
:102708002046FFF7B5FD064402224FF4C16120467A
:10271800FFF7AEFD0644022240F209612046FFF7AA
:10272800A7FD06440E224FF4E0612046FFF7A0FD06
:102738000644B0E0B5F5006F40F0A88040F63C7262
:1027480004212046FFF794FD0644DB224FF48A61FA
:102758002046FFF78DFD0644DB224FF488612046B2
:10276800FFF786FD064446F2A03202212046FFF715
:102778007FFD0644022240F206612046FFF778FDFD
:102788000644022240F207612046FFF771FD064425
:1027980002224FF4C1612046FFF76AFD0644022277
:1027A80040F209612046FFF763FD06440D224FF40D
:1027B800E0612046FFF75CFD06446CE01122282109
:1027C8002046FFF755FD0644202229212046FFF721
:1027D8004FFD064420222A212046FFF749FD0644E2
:1027E80040F2033204212046FFF742FD0644DB2273
:1027F8004FF488612046FFF73BFD064446F250320D
:1028080002212046FFF734FD0644022240F2066109
:102818002046FFF72DFD0644022240F207612046BC
:10282800FFF726FD06440D224FF4E0612046FFF72E
:102838001FFD06442FE04FF4437204212046FFF7A2
:1028480017FD0644DB224FF488612046FFF710FD90
:10285800064446F2503202212046FFF709FD06449D
:10286800022240F206612046FFF702FD06440222DA
:1028780040F207612046FFF7FBFC06440D224FF4A7
:10288800E0612046FFF7F4FC064404E0013602E06C
:102898000D4B00221A60BAF5FA4F00F02B8125D8AB
:1028A800BAF57A5F00F01E8110D945F222639A4585
:1028B80040F0308143224FF404712046FFF7D8FCE2
:1028C800064437E0101B00200C1B0020BAF5FA5F05
:1028D80029D042F611339A4540F01C8113224FF457
:1028E80004712046FFF7C4FC064423E04BF680330E
:1028F8009A4500F00781D74B9A4507D1A3224FF498
:1029080004712046FFF7B4FC064413E04AF644433A
:102918009A4540F0FF8073224FF404712046FFF778
:10292800A7FC064406E003224FF404712046FFF793
:102938009FFC0644B5F5006F00F0F48044F21002E5
:102948004FF440712046FFF793FC0644002240F202
:1029580002312046FFF78CFC06440A224FF402712C
:102968002046FFF785FC00EB060A01224FF40071B0
:102978002046FFF77DFC8244002F00F09A80022F4A
:1029880000F0D9804FF4407203212046FFF770FC15
:1029980000EB0A06002222212046FFF769FC0644C4
:1029A800002223212046FFF763FC06444FF44072BF
:1029B80036212046FFF75CFC064443F2030201215E
:1029C8002046FFF755FC0644B5F5006F00F0E98096
:1029D800052251212046FFF74BFC064443F20332FF
:1029E80001212046FFF744FC0644222260212046AC
:1029F800FFF73EFC064449F625724C212046FFF7B6
:102A080037FC06440F20FFF72FFC01222D2120461A
:102A1800FFF72EFC064401222E212046FFF728FC52
:102A280006444FF44C7203212046FFF721FC06446C
:102A3800332254212046FFF71BFC064440F20110C4
:102A4800FFF712FCEE2260212046FFF711FC064436
:102A5800C0224FF4C2612046FFF70AFC0644C02298
:102A680040F211612046FFF703FC064410224FF4A0
:102A780084612046FFF7FCFB0644C02240F2126145
:102A88002046FFF7F5FB0644C02240F213612046BA
:102A9800FFF7EEFB0644102240F222412046FFF7E2
:102AA800E7FB00EB060A49464046FFF769FC43F29C
:102AB8000337A5B1B5F5007F18BFB5F5807F78D08D
:102AC800B5F5006F00F08E80B5F5806F18BFB5F5CD
:102AD800407F00F0A88049464046FFF751FC504629
:102AE800BDE8F88F33224FF404712046FFF7C0FB8E
:102AF80006441FE763224FF404712046FFF7B8FB32
:102B0800064417E783224FF404712046FFF7B0FB11
:102B180006440FE783224FF404712046FFF7A8FB11
:102B2800064407E744F218024FF440712046FFF7C5
:102B38009FFB06440AE74FF480722D212046FFF7D9
:102B480097FB00EB0A074FF480722E212046FFF70F
:102B58008FFB0744404B1B78BBB14FF401424FF445
:102B680088712046FFF784FB07443B4B00221A700C
:102B78004FF49670FFF778FB00224FF484612046EB
:102B8800FFF776FB00EB070AFCE648F208124FF461
:102B980088712046FFF76CFB07443220FFF764FB7F
:102BA800EAE740F2052251212046FFF761FB06447F
:102BB80014E747F0130201212046FFF759FB00EB09
:102BC8000A0502224FF4C4612046FFF751FB054471
:102BD8004FF4605240F211412046FFF749FB00EBE9
:102BE800050A78E747F0130201212046FFF740FB6A
:102BF80000EB0A0502224FF4C4612046FFF738FBB8
:102C080005444FF4C0524FF482612046FFF730FB71
:102C180005444FF4C05240F211412046FFF728FB0B
:102C280000EB050A57E70B2218212046FFF720FB87
:102C380000EB0A050B221A212046FFF719FB054471
:102C48004FF4C0524FF482612046FFF711FB00EBAE
:102C5800050A40E7007701000500002038B5022981
:102C68004DD0032970D0012924D0C4B240F20332D8
:102C780005212046FFF7FCFA0546012240F20161D2
:102C88002046FFF7F5FA0544012240F2026120468A
:102C9800FFF7EEFA0544002240F204612046FFF7F0
:102CA800E7FA0544002240F205612046FFF7E0FA02
:102CB800284423E0C4B240F60C4205212046FFF721
:102CC800D7FA0546002240F201612046FFF7D0FA04
:102CD8000544002240F202612046FFF7C9FA054484
:102CE800022240F204612046FFF7C2FA054402229C
:102CF80040F205612046FFF7BBFA284438BDC4B24C
:102D080040F2033205212046FFF7B2FA05460122B8
:102D180040F201612046FFF7ABFA0544012240F278
:102D280002612046FFF7A4FA0544002240F204613C
:102D38002046FFF79DFA0544002240F2056120462F
:102D4800FFF796FA2844D9E7C4B240F60F72052176
:102D58002046FFF78DFA0546012240F20161204620
:102D6800FFF786FA0544012240F202612046FFF788
:102D78007FFA0544022240F204612046FFF778FA00
:102D88000544022240F205612046FFF771FA284403
:102D9800B4E7000008B5B1F5FA4F44D01CD8B1F536
:102DA8007A5F39D00AD945F22263994249D1432240
:102DB8004FF40471C0B2FFF75BFA2CE0B1F5FA5F8B
:102DC80023D042F6113399423BD113224FF40471B8
:102DD800C0B2FFF74DFA1EE04BF68033994229D076
:102DE8001B4B994206D1A3224FF40471C0B2FFF7DE
:102DF8003FFA10E04AF64443994222D173224FF435
:102E08000471C0B2FFF734FA05E003224FF40471ED
:102E1800C0B2FFF72DFA08BD33224FF40471C0B2D7
:102E2800FFF726FAF7E763224FF40471C0B2FFF701
:102E38001FFAF0E783224FF40471C0B2FFF718FAC3
:102E4800E9E783224FF40471C0B2FFF711FAE2E711
:102E58000077010008B500221146C0B2FFF708FA52
:102E68000023024A1360024A136008BD101B0020A9
:102E78000C1B002008B5FFF7BDF908BD10B50446C6
:102E8800FFF7B0F90021E0B2FFF7D2F910BD00005A
:102E980010B504460E4B1A784FF47A73B3FBF2F36D
:102EA8000C4A1068B0FBF3F000F0ACF868B90F2CCE
:102EB80001D901200AE0002221464FF0FF3000F03E
:102EC80083F8054B1C60002000E0012010BD00BF06
:102ED80038000020400000203C00002008B50320F6
:102EE80000F060F80020FFF7D3FFFDF71DFF00207A
:102EF80008BD0000034A1168034B1B780B4413609C
:102F0800704700BF141B002038000020014B1868D0
:102F1800704700BF141B002038B50446FFF7F6FFC2
:102F28000546B4F1FF3F02D0044B1B781C44FFF761
:102F3800EDFF401BA042FAD338BD00BF3800002087
:102F4800002804DB0901C9B2044B1954704700F08A
:102F58000F000901C9B2024B1954704700E400E0A0
:102F680014ED00E000B500F00700C0F1070CBCF15B
:102F7800040F28BF4FF0040C031D062B0FD9C31EE6
:102F88004FF0FF3E0EFA0CF021EA000199400EFACC
:102F980003FE22EA0E0241EA02005DF804FB002368
:102FA800EEE700000649CB6823F4E0631B041B0C22
:102FB800000200F4E0600343024A1A43CA60704703
:102FC80000ED00E00000FA0510B50446054BD8688E
:102FD800C0F30220FFF7C6FF01462046FFF7B0FF07
:102FE80010BD00BF00ED00E0002807DB00F01F0265
:102FF800400901239340024A42F82030704700BF3D
:1030080000E100E00138B0F1807F0BD24FF0E023FF
:103018005861054AF02182F82310002098610722A0
:103028001A6170470120704700ED00E030B4056870
:103038002C6824F480242C60046863608368402B27
:1030480005D0036899600368DA6030BC704703688C
:103058009A600368D960F8E710B40168CAB2103AF8
:103068000A4BA3FB02431B09094CE35CC3655F2AB7
:1030780007D9084B0B4004338365806D5DF8044B1A
:103088007047044B0B408365F7E700BFABAAAAAAB9
:103098002069000800FCFFFF836A826992B9012B4E
:1030A8000AD0022B02D00BB100207047C36A13F07C
:1030B800807F28D100207047C36AB3F1C07F24D035
:1030C80000207047B2F5005F09D0022B25D9032BE9
:1030D80025D1C36A13F0807F23D100207047032BCA
:1030E80003D8DFE803F01404140A00207047C36A09
:1030F80013F0807F0DD100207047C36AB3F1C07F01
:1031080009D0002070470120704701207047012036
:103118007047012070470120704701207047002048
:10312800704701207047000070B50446FFF7EEFEB7
:10313800002C5BD00546002384F83430022384F841
:1031480035302268136823F00103136023681A6876
:1031580012F0010F0AD0FFF7D9FE431B052BF5D952
:1031680020236365032084F8350070BD1A68204960
:1031780011406268A0680243E06802432069024384
:1031880060690243A0690243E0690243206A02437E
:103198000A43616A04291ED01A602668756925F0F9
:1031A8000705636A1D43042B07D1A36A1D43E36A1D
:1031B8001BB12046FFF770FF90B975612046FFF7F5
:1031C8004BFFE26D3F23934083600020606501233D
:1031D80084F83530C9E7E16A206B01430A43DBE72D
:1031E80040236365012084F83500BEE70120BCE771
:1031F8003F8010F000282DD038B5054690F83500EE
:10320800C0B2022825D02A68136823F0010313608E
:103218002B6800241C602B685C602B689C602B6802
:10322800DC602B681C612B6821225A612846FFF755
:1032380013FFEA6D3F2393408360EC632C646C6456
:10324800AC64EC642C656C6585F8354085F83440D1
:10325800204638BD0120704738B50446856D90F882
:103268003400012830D0012084F8340094F8350067
:10327800C0B2012804D0002384F83430022038BDBD
:10328800022084F83500002060652046FFF7CEFE56
:10329800E26D3F239340AB602268136843F0160346
:1032A80013602268536943F080035361236C23B190
:1032B8002268136843F0080313602268136843F018
:1032C800010313600020DAE70220D8E7F0B583B0E5
:1032D800044600230193724B1D68724BA3FB05350E
:1032E800AD0A876D3E68C26D08239340334210D003
:1032F80003681A6812F0040F0BD01A6822F004024F
:103308001A60C26D08239340BB60436D43F001030C
:103318004365E26D01239340334209D02268526924
:1033280012F0800F04D0BB60636D43F00203636545
:10333800E26D04239340334209D02268126812F0E8
:10334800020F04D0BB60636D43F004036365E26D54
:1033580010239340334224D02268126812F0080FD9
:103368001FD0BB6023681A6812F4802F0DD01B6829
:1033780013F4002F04D1236C9BB12046984710E02A
:10338800A36C73B1204698470BE01A6812F4807F4B
:1033980003D11A6822F008021A60236C0BB1204688
:1033A8009847E26D20239340334255D02268126833
:1033B80012F0100F50D0BB6094F83530DBB2052BFB
:1033C8000ED023681A6812F4802F33D01B6813F4C8
:1033D800002F2AD1636C002B3ED0204698473BE053
:1033E8002268136823F0160313602268536923F0D8
:1033F80080035361236CA3B12268136823F0080388
:103408001360E26D3F239340BB60002384F834309F
:10341800012384F83530236D002B3FD02046984790
:103428003CE0A36C002BE7D1EBE7E36BA3B12046AC
:10343800984711E01A6812F4807F09D11A6822F0BF
:1034480010021A60002384F83430012384F83530E0
:10345800E36B0BB120469847636DFBB1636D13F0C6
:10346800010F17D0052384F835302268136823F03C
:1034780001031360019B01330193AB4204D8236815
:103488001B6813F0010FF5D1002384F834300123B1
:1034980084F83530E36C0BB12046984703B0F0BD93
:1034A80040000020B5814E1B30B405686C6C04F0F8
:1034B800404C029C44EA03444CEA04046C640368EC
:1034C800DA634368B3F5403F03D00368D96030BC82
:1034D800704701F07F4C01F47F0301F47F45CAB2C5
:1034E80084689CB1012C0FD0022C12D0032C18D068
:1034F8004FEA1C7C1B0D2D0B1B0243EA051343EA04
:103508000C3343EA121101E021F07F41036899630B
:10351800DDE7DB0CAD0ADB0243EA451343EAD201DF
:10352800F4E74FEADC7CDB0CED0A9B0243EA451327
:1035380043EACC3343EAD201E8E7000038B310B5D8
:10354800044690F83930EBB1022384F83930226808
:10355800136823F4403361680B4313602268536B8C
:1035680023F00703A1680B4353632268116C094BCE
:103578000B40E1680B4313640020E063012384F8E7
:10358800393010BD80F83830FDF7E6FBDCE7012064
:10359800704700BF00C0FFFF10B582B0044690F826
:1035A8003800012812D0012084F83800022084F85D
:1035B8003900049800902046FFF776FF22681368C8
:1035C80043F001031360002002B010BD0220FBE7A6
:1035D80070B582B004460D460023019303681B684A
:1035E80013F0010F11D12268D369526A134313F003
:1035F800200F47D1236812229A60012384F83930BA
:10360800002084F8380002B070BDFFF77FFC064642
:1036180023685A6812F0020FE5D15A680192019A9C
:1036280012F0210F14D1B5F1FF3FF1D0FFF76EFC76
:10363800801BA84201D8002DEAD1E36B43F0200398
:10364800E363032084F83900002384F83830DAE78C
:10365800019A12F0200F03D0E26B42F00202E263FB
:10366800019A12F0010F03D0E26B42F00102E2630B
:1036780021229A60042384F83930002384F83830F2
:103688000120C0E7FFF742FC064623685A6812F09B
:10369800100FAFD15A680192019A12F0290F14D174
:1036A800B5F1FF3FF1D0FFF731FC801BA84201D8EC
:1036B800002DEAD1E36B43F02003E363032084F891
:1036C8003900002384F838309DE7019A12F0080F7A
:1036D80003D0E26B42F00402E263019A12F0200F79
:1036E80003D0E26B42F00202E263019A12F0010F8A
:1036F80003D0E26B42F00102E26329229A600423BC
:1037080084F83930002384F8383001207BE770478B
:10371800704770B5044603685D681E6815F0010FB0
:1037280016D016F4807F13D01A6822F480721A60BB
:10373800C36B43F00103C363036801229A60042347
:1037480080F83930002380F83830436903B198474E
:1037580015F0200F18D016F4005F15D022681368F2
:1037680023F400531360236820229A60E36B43F02C
:103778000203E363042384F83930002384F83830E3
:1037880063690BB12046984715F0080F18D016F456
:10379800006F15D02268136823F400631360236850
:1037A80008229A60E36B43F00403E363042384F87C
:1037B8003930002384F8383063690BB120469847C4
:1037C80015F0040F02D016F4806F20D115F0020F07
:1037D80016D016F4007F13D02268136823F4007300
:1037E8001360236802229A60E36BE363012384F881
:1037F8003930002384F8383023690BB120469847C4
:1038080015F0100F02D016F4805F0CD170BD22683D
:10381800136823F480631360236804229A602046A7
:10382800FFF775FFD2E72268136823F4805313600B
:10383800236810229A60E36BE363012384F839302C
:10384800002384F838302046FFF762FFDEE70000E7
:1038580090F83820012A59D030B40346012280F864
:103868003820022280F8392000EB0112D0698A1C26
:1038780012019A5840EA0242093801281DD9881CC9
:1038880003EB0010406842EA006239BB1C68656AB5
:103898001F48284010436062186803EB01129469BE
:1038A8008461D269093A012A0FD9012283F83920A3
:1038B800002083F8380030BC7047881C03EB0010E8
:1038C800406800F07F400243DFE7023103EB01115B
:1038D8004A68196822F07F428A62E6E71C68E5694F
:1038E8000B4828401043E061186803EB0112946903
:1038F8000461D269093A012AD7D8023103EB0111D0
:103908004A68196822F07F420A62CEE702207047AF
:10391800F0FFFC0000230F2B00F2F48070B582B09A
:1039280066E085684FEA430E032404FA0EF425EA9C
:103938000405CC6804FA0EF42C438460446824EA35
:1039480002044A68C2F300129A40224342605DE0D2
:10395800DC08083450F8242003F00705AD004FF0C8
:103968000F0E0EFA05FE22EA0E0E0A69AA4042EA76
:103978000E0240F824205DE0092200E0002202FA4D
:103988000EF22A430234604D45F824205F4A9468B9
:103998006FEA0C0224EA0C054E6816F4801F01D069
:1039A8004CEA0405594CA560E46802EA04054E682F
:1039B80016F4001F01D04CEA0405544CE560646815
:1039C80002EA04054E6816F4003F01D04CEA0405EB
:1039D8004E4C6560246822404D6815F4803F01D044
:1039E8004CEA0402494C226001330F2B00F2888014
:1039F80001229A400C6804EA020C32EA0404F3D16A
:103A08004C6804F00304013C012C8AD94A6802F08E
:103A18000302032A09D0C4685D000322AA4024EAED
:103A280002048A68AA402243C2604A6802F003027C
:103A3800022A8DD004684FEA430E032202FA0EF2DE
:103A480024EA02044A6802F0030202FA0EF2224350
:103A580002604A6812F4403FC6D02D4A546C44F4C0
:103A680080445464526C02F480420192019A9C088A
:103A7800A51C254A52F8255003F0030E4FEA8E0E76
:103A88000F2202FA0EF225EA0205224A90423FF47A
:103A980075AF02F58062904222D002F580629042B2
:103AA80020D002F5806290421ED002F580629042DA
:103AB8001CD002F5806290421AD002F580629042D2
:103AC80018D002F58062904216D002F580629042CA
:103AD80014D002F5806290423FF44EAF0A224EE7BE
:103AE80001224CE702224AE7032248E7042246E77C
:103AF800052244E7062242E7072240E708223EE77C
:103B080002B070BD704700BF00380140003C014062
:103B1800003802400000024000230F2B00F29B8077
:103B2800F0B52DE0092500E0002505FA0CF5A542C1
:103B380075D004685D004FF0030C0CFA05FC24EA0C
:103B48000C0404604FEAD30E0EF1080E50F82E4014
:103B580003F00706B6000F25B54024EA050440F82F
:103B68002E40C46824EA0C04C460446824EA0202B3
:103B78004260826822EA0C02826001330F2B69D806
:103B880001229A4002EA010632EA0104F5D14FEA1D
:103B9800930E0EF10205304C54F8254003F0030C47
:103BA8004FEA8C0C0F2505FA0CF73C402B4DA84228
:103BB800BAD005F58065A84221D005F58065A842F0
:103BC8001FD005F58065A8421DD005F58065A8427F
:103BD8001BD005F58065A84219D005F58065A84277
:103BE80017D005F58065A84215D005F58065A8426F
:103BF80013D005F58065A84294D00A2595E70125DC
:103C080093E7022591E703258FE704258DE705252E
:103C18008BE7062589E7072587E7082585E7104C00
:103C2800256825EA06052560656825EA06056560B4
:103C3800E56825EA0605E560A56825EA0605A560A4
:103C4800054E0EF1020456F8245025EA070546F8F9
:103C580024506EE7F0BD7047003801400000024074
:103C6800003C01400AB181617047090481617047D5
:103C780003689A6912F0020F01D000229A62036861
:103C88009A6912F0010F03D19A6942F001029A6110
:103C9800704710B4019CC1F3090141EA024119437C
:103CA800214321F0004102685368640D04F48064E4
:103CB80044F07F7444F4583444F47F7444F00304AB
:103CC80023EA04030B4353605DF8044B70472DE966
:103CD800F041044603689E6916F010067ED00D4632
:103CE80090461022DA61002637462368986910F05A
:103CF800200F32D18FBBB5F1FF3FF6D0FFF706F9A1
:103D0800A0EB0800A84201D8002DEED121684A682E
:103D180002F4804294F84230DBB2886910F4004F14
:103D280004D0203B18BF012302B973B923689B69EB
:103D380013F0200FD9D1FFF7E9F8A0EB08001928F4
:103D4800F4D946F020060127CFE74B6843F48043B7
:103D58004B60FFF7DBF88046E8E70FB92022DA610D
:103D680046F0040601252268936913F4807F05D084
:103D780046F001064FF48071D161012513F4806F7C
:103D880006D046F0080622684FF48061D16101250B
:103D980013F4007F24D046F0020623684FF4007223
:103DA800DA6101252046FFF763FF2268536823F094
:103DB800FF7323F48B3323F4FF7323F00103536061
:103DC800636C33436364202384F84130002384F810
:103DD800423084F840302846BDE8F0810025C2E72B
:103DE800002DF8D0DEE770B504460D461646236868
:103DF8009B6913F0020F22D1324629462046FFF76D
:103E080066FFF0B9B5F1FF3FF1D0FFF77FF8801BEF
:103E1800A84201D8002DEAD123689B6913F0020F4C
:103E2800E5D1636C43F020036364202384F84130B8
:103E3800002384F8423084F84030012000E000205C
:103E480070BD0120FCE72DE9F84305468846174672
:103E58001E46DDF820902B689C6938EA04040CBFE4
:103E680001230023BB4227D14A4631462846FFF7A3
:103E78002EFF20BBB6F1FF3FEDD0FFF747F8A0EBD0
:103E88000900B04201D8002EE5D12B689B6938EAB9
:103E980003030CBF01230023BB42DCD16B6C43F04E
:103EA80020036B64202385F84130002385F84230D5
:103EB80085F84030012000E00020BDE8F8830120AB
:103EC800FBE700002DE9F04182B0044690461D460C
:103ED800089E099F194B00934FF08073EAB2FFF7D1
:103EE800D8FE3A4631462046FFF77DFFF8B9012D46
:103EF8000ED123685FFA88F29A620097334600224F
:103F080080212046FFF79FFFA8B902B0BDE8F081E5
:103F180023684FEA18229A623A4631462046FFF74C
:103F280062FF30B923685FFA88F29A62E5E70120F8
:103F3800EBE70120E9E70120E7E700BF0020008068
:103F48002DE9F04182B0044690461D46089E099F1F
:103F5800184B00930023EAB2FFF79BFE3A4631461E
:103F68002046FFF740FFF8B9012D0ED123685FFA0C
:103F780088F29A6200973346002240212046FFF7D4
:103F880062FFA8B902B0BDE8F08123684FEA1822A1
:103F98009A623A4631462046FFF725FF30B9236832
:103FA8005FFA88F29A62E5E70120EBE70120E9E78A
:103FB8000120E7E70020008070B504460D4616464C
:103FC80004E023689B6913F0200F12D023689B69D3
:103FD80013F0200F1BD1324629462046FFF777FE03
:103FE800B8B9FEF793FF801BA842EAD8002DEDD19F
:103FF800E7E7636C43F020036364202384F84130CF
:10400800002384F8423084F84030012000E000208A
:1040180070BD0120FCE7704700285DD010B504464C
:1040280090F84130002B46D0242384F84130226890
:10403800136823F0010313606368226823F0706338
:1040480013612268936823F400439360E368012BAB
:1040580036D0A368226843F404439360E368022BD4
:1040680034D02268536823F400635360226851688F
:104078001A4B0B4353602268D36823F40043D36080
:10408800236962691343A169226843EA0123D36063
:10409800E369216A22680B4313602268136843F0BE
:1040A8000103136000206064202384F841302063FA
:1040B80084F8420010BD80F84030FFF7ACFFB3E74A
:1040C800A368226843F400439360C7E722685368F3
:1040D80043F400635360C9E7012070470080000281
:1040E8007047A8B110B50446242380F8413002680F
:1040F800136823F001031360FFF7F2FF00206064E8
:1041080084F84100206384F8420084F8400010BD20
:10411800012070472DE9F04F83B00D46BDF834A05B
:104128000E9F90F84110C9B2202940F0BC80044687
:10413800904699460C9BBAF1000F18BF002B16D079
:1041480090F84030012B00F0B2804FF0010B80F85E
:1041580040B0FEF7DBFE0646009019235A464FF49E
:1041680000412046FFF76FFE30B101209CE04FF47C
:1041780000734364012097E0212384F841304023F1
:1041880084F84230002363640C9A6262A4F82AA07F
:104198006363019600974B46424629462046FFF73F
:1041A80091FE70B9638D9BB2FF2B0FD9FF22228538
:1041B800002300934FF0807329462046FFF769FDDE
:1041C80021E0002384F8403058466DE0628D92B2B9
:1041D8002285002300934FF00073D2B2294620466F
:1041E800FFF757FD0FE0628D92B2228500230093FE
:1041F8004FF00073D2B229462046FFF74AFD638D7F
:104208009BB2002B33D0324639462046FFF7EBFDF0
:1042180000284ED1626A236812789A62636A013371
:104228006362638D9BB2013B9BB26385238D013B27
:104238009BB22385628D92B2002AE0D0002BDED19A
:1042480000963B46002280212046FFF7FCFD90BBEC
:10425800638D9BB2FF2BC6D9FF22228500230093D2
:104268004FF0807329462046FFF713FDC7E7324613
:1042780039462046FFF7A0FEF8B923682022DA6104
:1042880021684B6823F0FF7323F48B3323F4FF7307
:1042980023F001034B6084F84120002384F8423066
:1042A80084F8403000E0022003B0BDE8F08F02201F
:1042B800FAE70120F8E70120F6E70120F4E700001B
:1042C8002DE9F04F83B00D46BDF834A00E9F90F84D
:1042D8004110C9B2202940F0BD8004469046994655
:1042E8000C9BBAF1000F18BF002B16D090F8403085
:1042F800012B00F0B3804FF0010B80F840B0FEF7BF
:1043080005FE0646009019235A464FF40041204600
:10431800FFF799FD30B101209DE04FF4007343642D
:10432800012098E0222384F84130402384F8423069
:10433800002363640C9A6262A4F82AA0636301965E
:1043480000974B46424629462046FFF7F9FD70B9CB
:10435800638D9BB2FF2B0FD901222285434B00931B
:104368004FF0807329462046FFF793FC21E0002395
:1043780084F8403058466EE0628D92B222853B4BFD
:1043880000934FF00073D2B229462046FFF781FC14
:104398000FE0628D92B22285002300934FF00073E4
:1043A800D2B229462046FFF774FC638D9BB2002BDE
:1043B80034D000963B46002204212046FFF743FDF7
:1043C80000284DD123685A6A636A1A70636A0133F8
:1043D8006362228D013A92B22285638D9BB2013BC2
:1043E8009BB26385638D9BB2002BDED0002ADCD1A3
:1043F80000963B4680212046FFF725FD90BB638D44
:104408009BB2FF2BC5D901222285002300934FF0D0
:10441800807329462046FFF73CFCC6E732463946FA
:104428002046FFF7C9FDF8B923682022DA61216820
:104438004B6823F0FF7323F48B3323F4FF7323F0CB
:1044480001034B6084F84120002384F8423084F84B
:10445800403000E0022003B0BDE8F08F0220FAE708
:104468000120F8E70120F6E70120F4E700240080A6
:1044780090F841007047000070B54D680368DC682B
:10448800C4F30B4425444FEAC21C03EBC213D3F810
:10449800884004F47044C3F888400B680468E668F0
:1044A800C6F30B463344013304EBC21443EA054315
:1044B800C4F88830CD680368DC68C4F30A0425446E
:1044C80003EBC213D3F88C4004F47044C3F88C4057
:1044D8008B680468E668C6F30A0E7344013304EB7C
:1044E800C21443EA0543C4F88C30036803EBC213D3
:1044F800D3F8944024F00704C3F89440036803EB0E
:10450800C2130C69C3F8944091F831E091F8326015
:104518008D69036803EBC213D3F89C400024C3F8E9
:104528009C4091F8303043EA0E2343EA064306687C
:1045380006EBC21E43EA0563CEF89C300EF1840EEA
:10454800036803EBC213D3F8985025F0FF05C3F8AE
:104558009850036803EBC2134D69C3F89850036879
:1045680003EBC213D3F8A0602D4D3540C3F8A0501B
:104578000D6A036803EBC213CE693543C3F8A05034
:10458800036803EBC213D3F8AC50C3F8AC4003681C
:1045980003EBC2134A6AC3F8AC200B6983B1013B31
:1045A800062B05D8DFE803F03A06080604040A00DB
:1045B800012506E0022504E0022502E0022500E0CC
:1045C800042503686344D3F8B02002F0E022C3F85E
:1045D800B0208B6A05FB03F44B680A689B1A05FB3D
:1045E80003F303330268624443EA0443C2F8B03079
:1045F80003686344D3F8B4400A4A2240C3F8B4209D
:1046080003686344CA6AC3F8B42003686344D3F8F0
:10461800842042F00102C3F8842070BD0325D0E74E
:10462800F8F8FFFF00F8FFFF002872D038B50446FD
:1046380090F8A130002B67D0022384F8A1302268BB
:10464800936923F07043936121688A696368A0685D
:104658000343E06803432069034313438B612168E4
:104668008A682D4B1A408A6020688268A16965694A
:1046780041EA05410A4382602168CA681A40CA6053
:104688002068C268216AE56941EA05410A43C260B7
:1046980021680A691A400A6120680269A16A656A84
:1046A80041EA05410A43026121684A6913404B61A6
:1046B800E06A21684B69226B42EA004213434B616E
:1046C80094F8350094F836301B042168CA6A02F061
:1046D8007F42CA622168CA6A43EA002394F8340018
:1046E80003431343CB622268536B43F006035363BF
:1046F8002268936943F0010393610020C4F8A40081
:10470800012384F8A13038BD80F8A030FCF744FBC1
:1047180092E70120704700BF00F800F0F8B590F864
:10472800A030012B2CD004460D461646012780F8F0
:10473800A070022380F8A1304FF0340C0CFB020C5F
:104748000CF1380C8E46BEE80F00ACE80F00BEE84E
:104758000F00ACE80F00BEE80F00ACE80F00DEF871
:104768000030CCF80030324629462046FFF784FE58
:1047780023685F6284F8A170002084F8A000F8BD67
:104788000220FCE790F8A10070470000024A136875
:1047980043F480731360704700700040002800F0F5
:1047A800FF8170B582B00446036813F0010F29D069
:1047B800954B9B6803F00C03042B1AD0924B9B6813
:1047C80003F00C03082B0FD06368B3F5803F40D08B
:1047D800002B54D18C4B1A6822F480321A601A6864
:1047E80022F480221A6039E0874B5B6813F4800F4B
:1047F800EAD0854B1B6813F4003F03D06368002B95
:1048080000F0D081236813F0020F74D07E4B9B68B0
:1048180013F00C0F5ED07C4B9B6803F00C03082B45
:1048280053D0E368002B00F08980774A136843F07F
:1048380001031360FEF76AFB0546734B1B6813F010
:10484800020F72D1FEF762FB401B0228F5D9032044
:10485800ADE16D4A136843F48033136063682BB38A
:10486800FEF754FB0546684B1B6813F4003FC9D19B
:10487800FEF74CFB401B6428F5D9032097E1B3F5FC
:10488800A02F09D0604B1A6822F480321A601A6887
:1048980022F480221A60E1E75B4B1A6842F4802216
:1048A8001A601A6842F480321A60D7E7FEF72EFBC6
:1048B8000546554B1B6813F4003FA3D0FEF726FBB3
:1048C800401B6428F5D9032071E14F4B5B6813F452
:1048D800800FA6D14C4B1B6813F0020F03D0E3687E
:1048E800012B40F06181484A136823F0F8032169DD
:1048F80043EAC1031360236813F0080F46D06369C5
:1049080083B3414A536F43F001035367FEF7FEFA3E
:1049180005463D4B5B6F13F0020F37D1FEF7F6FAF1
:10492800401B0228F5D9032041E1374A136823F0D8
:10493800F803216943EAC1031360DCE7324A1368CC
:1049480023F001031360FEF7E1FA05462E4B1B68BE
:1049580013F0020FCFD0FEF7D9FA401B0228F5D981
:10496800032024E1284A536F23F001035367FEF71D
:10497800CDFA0546244B5B6F13F0020F06D0FEF705
:10498800C5FA401B0228F5D9032010E1236813F06B
:10499800040F7DD01C4B1B6C13F0805F1ED11A4B8B
:1049A8001A6C42F080521A641B6C03F08053019316
:1049B800019B0125154B1B6813F4807F10D0A36859
:1049C800012B25D0002B3BD10F4B1A6F22F001028F
:1049D8001A671A6F22F004021A671EE00025E9E739
:1049E8000A4A136843F480731360FEF78FFA064689
:1049F800064B1B6813F4807FE1D1FEF787FA801B12
:104A08006428F5D90320D2E0003802400070004045
:104A18006E4A136F43F001031367A36833B3FEF7BD
:104A280075FA0646694B1B6F13F0020F2FD1FEF77C
:104A38006DFA801B41F288339842F3D90320B6E01F
:104A4800052B09D0614B1A6F22F001021A671A6F01
:104A580022F004021A67E0E75C4B1A6F42F0040286
:104A68001A671A6F42F001021A67D6E7FEF74EFA84
:104A78000646564B1B6F13F0020F08D0FEF746FA96
:104A8800801B41F288339842F3D903208FE0FDB9A7
:104A9800A369002B00F08A804C4A926802F00C024D
:104AA800082A58D0022B19D0484A136823F080737B
:104AB8001360FEF72BFA0446444B1B6813F0007F83
:104AC80047D0FEF723FA001B0228F5D903206EE031
:104AD8003E4A136C23F080531364D9E73B4A1368AA
:104AE80023F080731360FEF711FA0546374B1B68F5
:104AF80013F0007F06D0FEF709FA401B0228F5D90B
:104B0800032054E0E369226A1343626A43EA82138A
:104B1800A26A5208013A43EA0243E26A43EA02639C
:104B280043F00053294A5360136843F080731360BD
:104B3800FEF7ECF90446254B1B6813F0007F06D1FD
:104B4800FEF7E4F9001B0228F5D903202FE0002026
:104B58002DE000202BE01D4A5268012B29D002F4D9
:104B68008003E1698B4226D102F03F03216A8B4220
:104B780023D1616A47F6C0731340B3EB811F1ED17E
:104B880002F44031A36A5B08013BB1EB034F18D133
:104B980002F07062E36AB2EB036F14D1002006E002
:104BA80001207047012002E0012000E0002002B04F
:104BB80070BD0120FBE70120F9E70120F7E701209C
:104BC800F5E70120F3E70120F1E700BF00380240D4
:104BD80008B5264B9B6803F00C03042B41D0082B27
:104BE80041D1224B5A6802F03F025B6813F4800FF0
:104BF80012D01E4B5968C1F388111D480023A1FB30
:104C08000001FBF7FDFA194B5B68C3F3014301335D
:104C18005B00B0FBF3F027E0144B5868C0F3881032
:104C28004FEA401CBCEB000C6EEB0E0E4FEA8E13E5
:104C380043EA9C634FEA8C11B1EB0C0163EB0E0362
:104C4800DB0043EA5173C90011EB000C43F1000388
:104C5800990200234FEA8C2041EA9C51FBF7D0FAD5
:104C6800D1E7034800E0034808BD00BF0038024010
:104C780040787D010024F400002800F0A08070B581
:104C88000D460446524B1B6803F00F038B420BD2B0
:104C98004F4A136823F00F030B431360136803F0A4
:104CA8000F038B4240F08D80236813F0020F17D05A
:104CB80013F0040F04D0474A936843F4E053936019
:104CC800236813F0080F04D0424A936843F4604302
:104CD8009360404A936823F0F003A1680B43936004
:104CE800236813F0010F31D06368012B20D0022B09
:104CF80025D0384A126812F0020F64D035498A6804
:104D080022F0030213438B60FEF700F90646314B8D
:104D18009B6803F00C036268B3EB820F16D0FEF7B2
:104D2800F5F8801B41F288339842F0D9032045E01A
:104D3800284A126812F4003FE0D101203EE0254ADB
:104D4800126812F0007FD9D1012037E0204B1B6890
:104D580003F00F03AB420AD91D4A136823F00F036F
:104D68002B431360136803F00F03AB422DD1236864
:104D780013F0040F06D0174A936823F4E053E16850
:104D88000B439360236813F0080F07D0114A936808
:104D980023F46043216943EAC1039360FFF718FFD6
:104DA8000C4B9B68C3F303130B4AD35CD8400B4BE3
:104DB80018600B4B1868FEF76BF8002070BD0120D7
:104DC80070470120FAE70120F8E70120F6E700BF65
:104DD800003C0240003802403069000840000020D2
:104DE8003C000020014B1868704700BF40000020BD
:104DF80008B5FFF7F7FF044B9B68C3F38223034A08
:104E0800D35CD84008BD00BF0038024028690008BC
:104E180008B5FFF7E7FF044B9B68C3F34233034A27
:104E2800D35CD84008BD00BF00380240286900089C
:104E380001290AD00123026B082A08D04268023AE5
:104E4800012A0CD943F0040070470923F3E74268AC
:104E5800012A18BF032AF1D143F01003EEE743F00B
:104E6800600070470E4B1B680E4AA2FB03231B0B06
:104E78009B0001680A6822F480320A601A46013BE6
:104E880032B10268126812F4803FF7D100207047EF
:104E9800D0F8803043F04003C0F8803003207047DA
:104EA800400000201BECCB95002800F0F38038B5BB
:104EB800044690F87D30002B00F0BA80022384F875
:104EC8007D302046FFF7CEFFE368012B00F0B58068
:104ED800022B40F0B4802022A368022B00F0B98096
:104EE800032B00F0B180012B00F0AB800025236874
:104EF80069486A498B4218BF834240F0AD80684BCD
:104F0800C3F80028E36943B323686349634A9342BB
:104F180018BF8B4200F0A480002023686149624AD0
:104F2800934218BF8B4200F0A08000EB8000400045
:104F3800E3695B02B0FBF3F05C4BA3FB0023DB08E7
:104F4800236203EB8302A0EB4200082801D9013356
:104F58002362236B042B00F08D806368022B18BF3B
:104F6800002B40F08E80E36B012B00F087804FF41C
:104F7800007C226811684E4B0B4013602268116850
:104F88006368206B0343606B0343A06B034343EAEE
:104F98000C032B43606A034320690343606903439E
:104FA800206A43EA00530B43136022685168414B5F
:104FB8000B40536021684A68A369A06A0343E06A0A
:104FC800034313434B60226891683B4B0B4093604B
:104FD80020688268236C013B216D0B43A16C0B4355
:104FE800E16C0B43616C013943EA0123134383608D
:104FF8002268D36823F47D6323F00F031B041B0C82
:10500800D3602068C268636DA16D0B43216E43EACB
:105018000143E16D013943EA01231343C3600020D2
:10502800C4F88000012384F87D3084F87C0038BD02
:1050380080F87C30FBF7D8FF40E710224CE70022CD
:105048004AE74FF4806552E742F001024FF40065E9
:105058004DE74FF400654AE7114BC3F8002C51E7C0
:105068004FF4002001F01AFB57E74FF4801001F0CD
:1050780015FB5AE7236A5B0823626EE74FF0000CC2
:1050880077E7E36B012B02D04FF0000C71E74FF488
:10509800007C6EE701207047045801402458014005
:1050A80000500140045C0140245C0140CDCCCCCCD4
:1050B80010C005FFF01FFFFF0080F8FFE8B138B50A
:1050C8000446022380F87D30036800251D610368CB
:1050D8004FF0FF329A61FFF7C5FE2268536843F02C
:1050E800080353602046FCF721F8C4F8805084F880
:1050F8007D5084F87C50284638BD01207047000058
:105108002DE9F041044688461646FDF7FFFE002EBD
:1051180018BFB8F1000F61D0054694F87D70FFB252
:10512800012F5FD194F87C30012B5DD0012384F8E6
:105138007C30C4F86480A4F86860A4F86A6000232E
:10514800C4F88030122284F87D20E26E2749116469
:10515800E26E2749D163E26E2649D164E26E136597
:105168002268B4F868301C32616EE06EFEF774F89D
:10517800064610BB00212046FFF75AFE2268136935
:10518800034313612268136843F4003313602368F0
:105198005A6912F4E02F14D1FDF7B8FE431BB3F59A
:1051A8007A7FF4D9D4F8803043F04003C4F88030D3
:1051B800002384F87C30032711E0002384F87C3036
:1051C8000DE01A6812F4803F03D11A6842F4803265
:1051D8001A60002384F87C30374600E001273846FF
:1051E800BDE8F0810227FAE70227F8E7FB5200083A
:1051F800C15200084953000870B5002A18BF002999
:105208004CD00446134694F87D50EDB2012D48D198
:1052180094F87C20012A46D0012284F87C2061661B
:10522800A4F86830A4F86A300023C4F88030222239
:1052380084F87D20226F1D491164226F1C49D163B7
:10524800226F1C49D164226F13652168B4F8683055
:10525800626E1C31206FFDF7FFFF064618B1002370
:1052680084F87C301BE000212046FFF7E1FD22682E
:105278001369034313612268136843F4003313600E
:1052880023681A6812F4803F03D11A6842F4803206
:105298001A60002384F87C30354600E00125284652
:1052A80070BD0225FBE70225F9E700BF3F53000860
:1052B800055300084953000810B5846BC369B3F55A
:1052C800807F12D00021A4F86A102268136823F4A2
:1052D800003313602046FFF7ABFD2268136923EA09
:1052E80000031361012384F87D302046FBF7A9FFF2
:1052F80010BD08B5806BFBF7A8FF08BD10B5846B1F
:10530800C369B3F5807F12D02268136823F4003391
:1053180013600021A4F86A102046FFF789FD22686F
:10532800136923EA00031361012384F87D302046C2
:10533800FCF773F810BD08B5806BFCF772F808BD70
:1053480010B5846BD4F8803043F08003C4F8803003
:10535800E36E5B6D012B07D0236F5B6D012B03D0D0
:105368002046FCF763F810BD2268136823F4003365
:1053780013602046FFF776FD012384F87D30002373
:10538800A4F86A30ECE790F87D00704710B4036A1F
:10539800046A24F001040462846924F0F00C4CEAE5
:1053A800021223F00A030B43826103625DF8044B87
:1053B800704710B4036A046A24F010040462846914
:1053C80024F4704C4CEA023223F0A00343EA0113A0
:1053D800826103625DF8044B7047836823F07003B1
:1053E8000B4343F0070383607047000030B5036840
:1053F8003F4A904214BF4FF0000E4FF0010EB0F13B
:10540800804F14BF72464EF00102AAB9394CA0422F
:1054180014BF00240124384DA8420DD064B904F10A
:10542800804404F58234A04214BF0024012405F509
:105438000065A84200D01CB123F070034C682343D8
:10544800002A33D12B4A904214BF002201222A4C51
:10545800A0422BD052BB02F1804202F58232904228
:1054680014BF0022012204F50064A0421ED0EAB94C
:10547800224A904214BF0022012204F59A34A04225
:1054880014D09AB91E4A904214BF0022012204F592
:105498000064A0420AD04AB91A4A904214BF0022B6
:1054A8000122A4F59634A04200D022B123F4407C16
:1054B800CB6843EA0C0323F080034A691343036073
:1054C8008A68C2620A6882620F4A904214BF7346B1
:1054D8004EF001030BB10B690363012343610369B8
:1054E80013F0010F03D0036923F00103036130BDFA
:1054F8000000014000080040000400400044014052
:1055080000180040002000400004014060B310B5BE
:10551800044690F83D3013B3022384F83D30214609
:1055280051F8040BFFF762FF012384F8483084F830
:105538003E3084F83F3084F8403084F8413084F8B5
:10554800423084F8433084F8443084F8453084F895
:10555800463084F8473084F83D30002010BD80F88C
:105568003C30FBF7E3FCD7E70120704710B48468B0
:1055780024F47F4C42EA03220A4342EA0C02826086
:105588005DF8044B7047000090F83C30012B76D052
:1055980010B50446012380F83C30022380F83D30E2
:1055A80002689068374B034093600B68602B4CD0BF
:1055B80029D8402B54D00CD9502B22D1CA6849681D
:1055C8002068FFF7E3FE50212068FFF706FF002060
:1055D80005E0202B0DD009D9302B0AD0012001235A
:1055E80084F83D30002384F83C3010BD0BB1102BFB
:1055F80005D119462068FFF7F0FE0020EFE70120EB
:10560800EDE70120EBE7B3F5805F34D0B3F5005F39
:105618000CD1CB684A6889682068FFF7A7FF226821
:10562800936843F4804393600020D8E7702B24D11B
:10563800CB684A6889682068FFF798FF22689368F2
:1056480043F0770393600020C9E7CA684968206877
:10565800FFF7AFFE60212068FFF7BFFE0020BEE71E
:10566800CA6849682068FFF791FE40212068FFF763
:10567800B4FE0020B3E70020B1E70120AFE7022025
:10568800704700BF8800FEFF026852E8003F23F41D
:10569800907342E800310029F6D1026802F108034C
:1056A80053E8003F23F00103083242E800310029A3
:1056B800F3D1036E012B06D02023C0F880300023DD
:1056C800036683667047026852E8003F23F01003C0
:1056D80042E800310029F6D1EEE7000010B5044693
:1056E80083680269134342691343C269134301681B
:1056F8000868934A02401A430A602268536823F4F0
:105708004053E1680B435360A269236A1A43216836
:105718008B6823F4306313438B602368894A934270
:1057280019D0894A934229D0884A93423ED0884A60
:10573800934262D0874A934271D0874A934200F0DD
:105748008380864A934200F09480854A934200F011
:10575800A58010233AE0834BD3F8903003F003037D
:10576800032B09D8DFE803F00204AE0601232DE07D
:1057780004232BE0082329E0102327E0794BD3F8F2
:10578800903003F00C030C2B0ED8DFE803F0070D64
:105798000D0D090D0D0D9D0D0D0D0B00002315E0D0
:1057A800042313E0082311E010230FE06D4BD3F816
:1057B800903003F03003202B00F0888019D8002B9C
:1057C80000F08680102B40F085800423E069B0F556
:1057D800004F00F0AB80082B00F20C81DFE813F0DB
:1057E800E800FB00E6000A01FE000A010A010A01BE
:1057F8000101302B70D10823E8E75A4BD3F89030D9
:1058080003F0C003802B69D005D8002B68D0402B4B
:1058180068D10423DAE7C02B66D10823D6E7514BB9
:10582800D3F8903003F44073B3F5007F5ED006D808
:10583800002B5DD0B3F5807F5CD10423C6E7B3F5B8
:10584800407F59D10823C1E7464BD3F8903003F481
:105858004063B3F5006F51D006D8002B50D0B3F594
:10586800806F4FD10423B1E7B3F5406F4CD10823C3
:10587800ACE73C4BD3F8903003F44053B3F5005FEA
:1058880044D006D8002B43D0B3F5805F42D104231F
:105898009CE7B3F5405F3FD1082397E7314BD3F836
:1058A800903003F44043B3F5004F37D005D8BBB36D
:1058B800B3F5804F36D1042388E7B3F5404F33D191
:1058C800082383E7022381E702237FE702237DE79A
:1058D80000237BE7102379E7102377E7022375E796
:1058E800002373E7102371E710236FE702236DE7A6
:1058F80000236BE7102369E7102367E7022365E7B6
:10590800012363E7102361E710235FE702235DE7C4
:1059180000235BE7102359E7102357E7022355E7D5
:10592800002353E7102351E710234FE7082B5BD8D8
:10593800DFE803F01A343A5A375A5A5A1E0000BFA1
:10594800F369FFEF001001400044004000480040A8
:10595800004C004000500040001401400078004016
:10596800007C004000380240FFF742FA00283DD092
:105978006268530803EB4003B3FBF2F3A3F1100191
:105988004FF6EF72914233D89AB222F00F02C3F366
:10599800420313432268D360002030E0FFF738FA4F
:1059A800E4E7FFF715F9E1E71748E1E7164802E0F1
:1059B800FFF71EFA00B3636800EB5300B0FBF3F087
:1059C800A0F110024FF6EF739A4217D8236880B2FD
:1059D800D860002013E0FFF71BFAEBE7FFF7F8F8B1
:1059E800E8E74FF40040E6E7012008E0002006E081
:1059F800012004E0012002E0002000E00120002353
:105A0800A366E36610BD00BF0024F400436A13F0E8
:105A1800080F06D00268536823F40043416B0B4318
:105A28005360436A13F0010F06D00268536823F4E9
:105A38000033816A0B435360436A13F0020F06D0A8
:105A48000268536823F48033C16A0B435360436A86
:105A580013F0040F06D00268536823F48023016B07
:105A68000B435360436A13F0100F06D00268936823
:105A780023F48053816B0B439360436A13F0200F28
:105A880006D00268936823F40053C16B0B439360FC
:105A9800436A13F0400F0AD00268536823F4801356
:105AA800016C0B435360036CB3F5801F0BD0436A42
:105AB80013F0800F06D00268536823F40023816C2A
:105AC8000B43536070470268536823F4C003416C6A
